{
  "_format": "hh-sol-artifact-1",
  "contractName": "PaymentPlatform",
  "sourceName": "contracts/PaymentPlatform.sol",
  "abi": [
    {
      "inputs": [],
      "stateMutability": "nonpayable",
      "type": "constructor"
    },
    {
      "anonymous": false,
      "inputs": [
        {
          "indexed": true,
          "internalType": "address",
          "name": "from",
          "type": "address"
        },
        {
          "indexed": true,
          "internalType": "address",
          "name": "to",
          "type": "address"
        },
        {
          "indexed": false,
          "internalType": "uint256",
          "name": "amount",
          "type": "uint256"
        },
        {
          "indexed": false,
          "internalType": "uint256",
          "name": "timestamp",
          "type": "uint256"
        }
      ],
      "name": "DirectPaymentRecorded",
      "type": "event"
    },
    {
      "anonymous": false,
      "inputs": [
        {
          "indexed": false,
          "internalType": "string",
          "name": "paymentId",
          "type": "string"
        },
        {
          "indexed": true,
          "internalType": "address",
          "name": "buyer",
          "type": "address"
        },
        {
          "indexed": true,
          "internalType": "address",
          "name": "seller",
          "type": "address"
        },
        {
          "indexed": false,
          "internalType": "uint256",
          "name": "amount",
          "type": "uint256"
        }
      ],
      "name": "PaymentCompleted",
      "type": "event"
    },
    {
      "anonymous": false,
      "inputs": [
        {
          "indexed": false,
          "internalType": "string",
          "name": "paymentId",
          "type": "string"
        }
      ],
      "name": "PaymentExpired",
      "type": "event"
    },
    {
      "anonymous": false,
      "inputs": [
        {
          "indexed": false,
          "internalType": "string",
          "name": "paymentId",
          "type": "string"
        },
        {
          "indexed": true,
          "internalType": "address",
          "name": "seller",
          "type": "address"
        },
        {
          "indexed": false,
          "internalType": "uint256",
          "name": "amount",
          "type": "uint256"
        },
        {
          "indexed": false,
          "internalType": "uint256",
          "name": "expiryTime",
          "type": "uint256"
        }
      ],
      "name": "PaymentRequestCreated",
      "type": "event"
    },
    {
      "anonymous": false,
      "inputs": [
        {
          "indexed": true,
          "internalType": "address",
          "name": "sellerAddress",
          "type": "address"
        },
        {
          "indexed": false,
          "internalType": "string",
          "name": "businessName",
          "type": "string"
        }
      ],
      "name": "SellerRegistered",
      "type": "event"
    },
    {
      "inputs": [],
      "name": "PAYMENT_WINDOW",
      "outputs": [
        {
          "internalType": "uint256",
          "name": "",
          "type": "uint256"
        }
      ],
      "stateMutability": "view",
      "type": "function"
    },
    {
      "inputs": [
        {
          "internalType": "string",
          "name": "paymentId",
          "type": "string"
        }
      ],
      "name": "checkPaymentStatus",
      "outputs": [
        {
          "internalType": "bool",
          "name": "isPaid",
          "type": "bool"
        },
        {
          "internalType": "bool",
          "name": "isExpired",
          "type": "bool"
        },
        {
          "internalType": "uint256",
          "name": "remainingTime",
          "type": "uint256"
        },
        {
          "internalType": "address",
          "name": "buyer",
          "type": "address"
        }
      ],
      "stateMutability": "view",
      "type": "function"
    },
    {
      "inputs": [
        {
          "internalType": "string",
          "name": "paymentId",
          "type": "string"
        },
        {
          "internalType": "uint256",
          "name": "amount",
          "type": "uint256"
        }
      ],
      "name": "createPaymentRequest",
      "outputs": [],
      "stateMutability": "nonpayable",
      "type": "function"
    },
    {
      "inputs": [
        {
          "internalType": "uint256",
          "name": "offset",
          "type": "uint256"
        },
        {
          "internalType": "uint256",
          "name": "limit",
          "type": "uint256"
        }
      ],
      "name": "getAllSellers",
      "outputs": [
        {
          "internalType": "address[]",
          "name": "addresses",
          "type": "address[]"
        },
        {
          "internalType": "string[]",
          "name": "businessNames",
          "type": "string[]"
        },
        {
          "internalType": "uint256[]",
          "name": "transactions",
          "type": "uint256[]"
        },
        {
          "internalType": "uint256[]",
          "name": "amounts",
          "type": "uint256[]"
        }
      ],
      "stateMutability": "view",
      "type": "function"
    },
    {
      "inputs": [
        {
          "internalType": "address",
          "name": "client",
          "type": "address"
        }
      ],
      "name": "getClientDirectPayments",
      "outputs": [
        {
          "internalType": "address[]",
          "name": "recipients",
          "type": "address[]"
        },
        {
          "internalType": "uint256[]",
          "name": "amounts",
          "type": "uint256[]"
        },
        {
          "internalType": "uint256[]",
          "name": "timestamps",
          "type": "uint256[]"
        }
      ],
      "stateMutability": "view",
      "type": "function"
    },
    {
      "inputs": [
        {
          "internalType": "address",
          "name": "client",
          "type": "address"
        }
      ],
      "name": "getClientPaymentCount",
      "outputs": [
        {
          "internalType": "uint256",
          "name": "",
          "type": "uint256"
        }
      ],
      "stateMutability": "view",
      "type": "function"
    },
    {
      "inputs": [
        {
          "internalType": "address",
          "name": "client",
          "type": "address"
        }
      ],
      "name": "getClientPaymentHistory",
      "outputs": [
        {
          "internalType": "string[]",
          "name": "paymentIds",
          "type": "string[]"
        },
        {
          "internalType": "address[]",
          "name": "sellers",
          "type": "address[]"
        },
        {
          "internalType": "string[]",
          "name": "businessNames",
          "type": "string[]"
        },
        {
          "internalType": "uint256[]",
          "name": "amounts",
          "type": "uint256[]"
        },
        {
          "internalType": "uint256[]",
          "name": "timestamps",
          "type": "uint256[]"
        }
      ],
      "stateMutability": "view",
      "type": "function"
    },
    {
      "inputs": [
        {
          "internalType": "address",
          "name": "seller",
          "type": "address"
        }
      ],
      "name": "getSellerDirectPayments",
      "outputs": [
        {
          "internalType": "address[]",
          "name": "payers",
          "type": "address[]"
        },
        {
          "internalType": "uint256[]",
          "name": "amounts",
          "type": "uint256[]"
        },
        {
          "internalType": "uint256[]",
          "name": "timestamps",
          "type": "uint256[]"
        }
      ],
      "stateMutability": "view",
      "type": "function"
    },
    {
      "inputs": [
        {
          "internalType": "address",
          "name": "seller",
          "type": "address"
        }
      ],
      "name": "getSellerPaymentHistory",
      "outputs": [
        {
          "internalType": "string[]",
          "name": "paymentIds",
          "type": "string[]"
        },
        {
          "internalType": "address[]",
          "name": "buyers",
          "type": "address[]"
        },
        {
          "internalType": "uint256[]",
          "name": "amounts",
          "type": "uint256[]"
        },
        {
          "internalType": "uint256[]",
          "name": "timestamps",
          "type": "uint256[]"
        },
        {
          "internalType": "bool[]",
          "name": "isPaid",
          "type": "bool[]"
        }
      ],
      "stateMutability": "view",
      "type": "function"
    },
    {
      "inputs": [
        {
          "internalType": "address",
          "name": "sellerAddress",
          "type": "address"
        }
      ],
      "name": "getSellerStats",
      "outputs": [
        {
          "internalType": "string",
          "name": "businessName",
          "type": "string"
        },
        {
          "internalType": "uint256",
          "name": "totalTransactions",
          "type": "uint256"
        },
        {
          "internalType": "uint256",
          "name": "totalAmount",
          "type": "uint256"
        }
      ],
      "stateMutability": "view",
      "type": "function"
    },
    {
      "inputs": [
        {
          "internalType": "string",
          "name": "paymentId",
          "type": "string"
        }
      ],
      "name": "makePayment",
      "outputs": [],
      "stateMutability": "payable",
      "type": "function"
    },
    {
      "inputs": [
        {
          "internalType": "string",
          "name": "paymentId",
          "type": "string"
        }
      ],
      "name": "markPaymentExpired",
      "outputs": [],
      "stateMutability": "nonpayable",
      "type": "function"
    },
    {
      "inputs": [],
      "name": "owner",
      "outputs": [
        {
          "internalType": "address",
          "name": "",
          "type": "address"
        }
      ],
      "stateMutability": "view",
      "type": "function"
    },
    {
      "inputs": [
        {
          "internalType": "string",
          "name": "",
          "type": "string"
        }
      ],
      "name": "paymentRequests",
      "outputs": [
        {
          "internalType": "string",
          "name": "paymentId",
          "type": "string"
        },
        {
          "internalType": "address payable",
          "name": "seller",
          "type": "address"
        },
        {
          "internalType": "uint256",
          "name": "amount",
          "type": "uint256"
        },
        {
          "internalType": "uint256",
          "name": "expiryTime",
          "type": "uint256"
        },
        {
          "internalType": "bool",
          "name": "isPaid",
          "type": "bool"
        },
        {
          "internalType": "bool",
          "name": "isExpired",
          "type": "bool"
        },
        {
          "internalType": "address",
          "name": "buyer",
          "type": "address"
        }
      ],
      "stateMutability": "view",
      "type": "function"
    },
    {
      "inputs": [
        {
          "internalType": "address",
          "name": "recipient",
          "type": "address"
        },
        {
          "internalType": "uint256",
          "name": "amount",
          "type": "uint256"
        }
      ],
      "name": "recordDirectPayment",
      "outputs": [],
      "stateMutability": "nonpayable",
      "type": "function"
    },
    {
      "inputs": [
        {
          "internalType": "string",
          "name": "businessName",
          "type": "string"
        }
      ],
      "name": "registerSeller",
      "outputs": [],
      "stateMutability": "nonpayable",
      "type": "function"
    },
    {
      "inputs": [
        {
          "internalType": "uint256",
          "name": "",
          "type": "uint256"
        }
      ],
      "name": "sellerAddresses",
      "outputs": [
        {
          "internalType": "address",
          "name": "",
          "type": "address"
        }
      ],
      "stateMutability": "view",
      "type": "function"
    },
    {
      "inputs": [
        {
          "internalType": "address",
          "name": "",
          "type": "address"
        }
      ],
      "name": "sellers",
      "outputs": [
        {
          "internalType": "address payable",
          "name": "walletAddress",
          "type": "address"
        },
        {
          "internalType": "string",
          "name": "businessName",
          "type": "string"
        },
        {
          "internalType": "bool",
          "name": "isRegistered",
          "type": "bool"
        },
        {
          "internalType": "uint256",
          "name": "totalTransactions",
          "type": "uint256"
        },
        {
          "internalType": "uint256",
          "name": "totalAmount",
          "type": "uint256"
        }
      ],
      "stateMutability": "view",
      "type": "function"
    },
    {
      "inputs": [],
      "name": "totalSellers",
      "outputs": [
        {
          "internalType": "uint256",
          "name": "",
          "type": "uint256"
        }
      ],
      "stateMutability": "view",
      "type": "function"
    }
  ],
  "bytecode": "0x6080604052348015600f57600080fd5b5033600660006101000a81548173ffffffffffffffffffffffffffffffffffffffff021916908373ffffffffffffffffffffffffffffffffffffffff1602179055506000600881905550614b57806100686000396000f3fe6080604052600436106101145760003560e01c80639086ade6116100a0578063ce36ab7f11610064578063ce36ab7f146103fe578063e09eb8c41461043d578063ec5d53c01461047a578063f9e823e6146104ba578063ffe8704d146104d657610114565b80639086ade6146102ec5780639b819783146103155780639e18298a14610354578063c135d84d14610394578063c6c48962146103d357610114565b806363b48852116100e757806363b48852146101ef5780636d3f4b7a146102185780636d47ab72146102435780636eb78e65146102845780638da5cb5b146102c157610114565b8063028f919d146101195780632a3273251461015c5780632a48142b14610185578063316a29fc146101c6575b600080fd5b34801561012557600080fd5b50610140600480360381019061013b919061359b565b610517565b60405161015397969594939291906136f9565b60405180910390f35b34801561016857600080fd5b50610183600480360381019061017e919061359b565b610651565b005b34801561019157600080fd5b506101ac60048036038101906101a7919061379b565b6107b5565b6040516101bd959493929190613b0e565b60405180910390f35b3480156101d257600080fd5b506101ed60048036038101906101e89190613bb0565b610cf9565b005b3480156101fb57600080fd5b506102166004803603810190610211919061359b565b611015565b005b34801561022457600080fd5b5061022d6112c8565b60405161023a9190613c0c565b60405180910390f35b34801561024f57600080fd5b5061026a6004803603810190610265919061379b565b6112ce565b60405161027b959493929190613c27565b60405180910390f35b34801561029057600080fd5b506102ab60048036038101906102a69190613c81565b6113b9565b6040516102b89190613cae565b60405180910390f35b3480156102cd57600080fd5b506102d66113f8565b6040516102e39190613cae565b60405180910390f35b3480156102f857600080fd5b50610313600480360381019061030e9190613cc9565b61141e565b005b34801561032157600080fd5b5061033c6004803603810190610337919061379b565b611810565b60405161034b93929190613d09565b60405180910390f35b34801561036057600080fd5b5061037b60048036038101906103769190613d55565b611b5f565b60405161038b9493929190613d95565b60405180910390f35b3480156103a057600080fd5b506103bb60048036038101906103b6919061379b565b612020565b6040516103ca93929190613d09565b60405180910390f35b3480156103df57600080fd5b506103e861236f565b6040516103f59190613c0c565b60405180910390f35b34801561040a57600080fd5b506104256004803603810190610420919061379b565b612374565b60405161043493929190613df6565b60405180910390f35b34801561044957600080fd5b50610464600480360381019061045f919061379b565b61253e565b6040516104719190613c0c565b60405180910390f35b34801561048657600080fd5b506104a1600480360381019061049c919061359b565b61258a565b6040516104b19493929190613e34565b60405180910390f35b6104d460048036038101906104cf919061359b565b612796565b005b3480156104e257600080fd5b506104fd60048036038101906104f8919061379b565b612f05565b60405161050e959493929190613e79565b60405180910390f35b60018180516020810182018051848252602083016020850120818352809550505050505060009150905080600001805461055090613f1e565b80601f016020809104026020016040519081016040528092919081815260200182805461057c90613f1e565b80156105c95780601f1061059e576101008083540402835291602001916105c9565b820191906000526020600020905b8154815290600101906020018083116105ac57829003601f168201915b5050505050908060010160009054906101000a900473ffffffffffffffffffffffffffffffffffffffff16908060020154908060030154908060040160009054906101000a900460ff16908060040160019054906101000a900460ff16908060040160029054906101000a900473ffffffffffffffffffffffffffffffffffffffff16905087565b60006001826040516106639190613f8b565b908152602001604051809103902090508060040160009054906101000a900460ff16156106c5576040517f08c379a00000000000000000000000000000000000000000000000000000000081526004016106bc90613fee565b60405180910390fd5b8060040160019054906101000a900460ff1615610717576040517f08c379a000000000000000000000000000000000000000000000000000000000815260040161070e90614080565b60405180910390fd5b8060030154421161075d576040517f08c379a0000000000000000000000000000000000000000000000000000000008152600401610754906140ec565b60405180910390fd5b60018160040160016101000a81548160ff0219169083151502179055507fd4ffa26973067f1a65cfbf5b389db5616b7274527f2e8a5651a297a46ddf8474826040516107a9919061410c565b60405180910390a15050565b60608060608060606000600260008873ffffffffffffffffffffffffffffffffffffffff1673ffffffffffffffffffffffffffffffffffffffff168152602001908152602001600020805480602002602001604051908101604052809291908181526020016000905b828210156109d857838290600052602060002090600502016040518060e001604052908160008201805461085190613f1e565b80601f016020809104026020016040519081016040528092919081815260200182805461087d90613f1e565b80156108ca5780601f1061089f576101008083540402835291602001916108ca565b820191906000526020600020905b8154815290600101906020018083116108ad57829003601f168201915b505050505081526020016001820160009054906101000a900473ffffffffffffffffffffffffffffffffffffffff1673ffffffffffffffffffffffffffffffffffffffff1673ffffffffffffffffffffffffffffffffffffffff16815260200160028201548152602001600382015481526020016004820160009054906101000a900460ff161515151581526020016004820160019054906101000a900460ff161515151581526020016004820160029054906101000a900473ffffffffffffffffffffffffffffffffffffffff1673ffffffffffffffffffffffffffffffffffffffff1673ffffffffffffffffffffffffffffffffffffffff16815250508152602001906001019061081e565b5050505090506000815190508067ffffffffffffffff8111156109fe576109fd613470565b5b604051908082528060200260200182016040528015610a3157816020015b6060815260200190600190039081610a1c5790505b5096508067ffffffffffffffff811115610a4e57610a4d613470565b5b604051908082528060200260200182016040528015610a7c5781602001602082028036833780820191505090505b5095508067ffffffffffffffff811115610a9957610a98613470565b5b604051908082528060200260200182016040528015610ac75781602001602082028036833780820191505090505b5094508067ffffffffffffffff811115610ae457610ae3613470565b5b604051908082528060200260200182016040528015610b125781602001602082028036833780820191505090505b5093508067ffffffffffffffff811115610b2f57610b2e613470565b5b604051908082528060200260200182016040528015610b5d5781602001602082028036833780820191505090505b50925060005b81811015610ced57828181518110610b7e57610b7d61412e565b5b602002602001015160000151888281518110610b9d57610b9c61412e565b5b6020026020010181905250828181518110610bbb57610bba61412e565b5b602002602001015160c00151878281518110610bda57610bd961412e565b5b602002602001019073ffffffffffffffffffffffffffffffffffffffff16908173ffffffffffffffffffffffffffffffffffffffff1681525050828181518110610c2757610c2661412e565b5b602002602001015160400151868281518110610c4657610c4561412e565b5b60200260200101818152505060b4838281518110610c6757610c6661412e565b5b602002602001015160600151610c7d919061418c565b858281518110610c9057610c8f61412e565b5b602002602001018181525050828181518110610caf57610cae61412e565b5b602002602001015160800151848281518110610cce57610ccd61412e565b5b6020026020010190151590811515815250508080600101915050610b63565b50505091939590929450565b6000803373ffffffffffffffffffffffffffffffffffffffff1673ffffffffffffffffffffffffffffffffffffffff16815260200190815260200160002060020160009054906101000a900460ff16610d87576040517f08c379a0000000000000000000000000000000000000000000000000000000008152600401610d7e9061420c565b60405180910390fd5b60008111610dca576040517f08c379a0000000000000000000000000000000000000000000000000000000008152600401610dc190614278565b60405180910390fd5b6000600183604051610ddc9190613f8b565b90815260200160405180910390206002015414610e2e576040517f08c379a0000000000000000000000000000000000000000000000000000000008152600401610e25906142e4565b60405180910390fd5b600060b442610e3d9190614304565b90506040518060e001604052808481526020013373ffffffffffffffffffffffffffffffffffffffff168152602001838152602001828152602001600015158152602001600015158152602001600073ffffffffffffffffffffffffffffffffffffffff16815250600184604051610eb59190613f8b565b90815260200160405180910390206000820151816000019081610ed891906144e4565b5060208201518160010160006101000a81548173ffffffffffffffffffffffffffffffffffffffff021916908373ffffffffffffffffffffffffffffffffffffffff160217905550604082015181600201556060820151816003015560808201518160040160006101000a81548160ff02191690831515021790555060a08201518160040160016101000a81548160ff02191690831515021790555060c08201518160040160026101000a81548173ffffffffffffffffffffffffffffffffffffffff021916908373ffffffffffffffffffffffffffffffffffffffff1602179055509050503373ffffffffffffffffffffffffffffffffffffffff167f3840251a2662bfc755f8055138b0ece56bbc33e5b234c35f9877b42c460bf4b284848460405161100893929190613df6565b60405180910390a2505050565b6000803373ffffffffffffffffffffffffffffffffffffffff1673ffffffffffffffffffffffffffffffffffffffff16815260200190815260200160002060020160009054906101000a900460ff16156110a4576040517f08c379a000000000000000000000000000000000000000000000000000000000815260040161109b90614602565b60405180910390fd5b60008151116110e8576040517f08c379a00000000000000000000000000000000000000000000000000000000081526004016110df9061466e565b60405180910390fd5b6040518060a001604052803373ffffffffffffffffffffffffffffffffffffffff1681526020018281526020016001151581526020016000815260200160008152506000803373ffffffffffffffffffffffffffffffffffffffff1673ffffffffffffffffffffffffffffffffffffffff16815260200190815260200160002060008201518160000160006101000a81548173ffffffffffffffffffffffffffffffffffffffff021916908373ffffffffffffffffffffffffffffffffffffffff16021790555060208201518160010190816111c491906144e4565b5060408201518160020160006101000a81548160ff02191690831515021790555060608201518160030155608082015181600401559050506007339080600181540180825580915050600190039060005260206000200160009091909190916101000a81548173ffffffffffffffffffffffffffffffffffffffff021916908373ffffffffffffffffffffffffffffffffffffffff160217905550600860008154809291906112729061468e565b91905055503373ffffffffffffffffffffffffffffffffffffffff167fecef9454c60fab6a60b6f2aa319263c0f711cdb927c213e76687f7853b597842826040516112bd919061410c565b60405180910390a250565b60085481565b60006020528060005260406000206000915090508060000160009054906101000a900473ffffffffffffffffffffffffffffffffffffffff169080600101805461131790613f1e565b80601f016020809104026020016040519081016040528092919081815260200182805461134390613f1e565b80156113905780601f1061136557610100808354040283529160200191611390565b820191906000526020600020905b81548152906001019060200180831161137357829003601f168201915b5050505050908060020160009054906101000a900460ff16908060030154908060040154905085565b600781815481106113c957600080fd5b906000526020600020016000915054906101000a900473ffffffffffffffffffffffffffffffffffffffff1681565b600660009054906101000a900473ffffffffffffffffffffffffffffffffffffffff1681565b6000429050600460003373ffffffffffffffffffffffffffffffffffffffff1673ffffffffffffffffffffffffffffffffffffffff16815260200190815260200160002060405180608001604052803373ffffffffffffffffffffffffffffffffffffffff1681526020018573ffffffffffffffffffffffffffffffffffffffff16815260200184815260200183815250908060018154018082558091505060019003906000526020600020906004020160009091909190915060008201518160000160006101000a81548173ffffffffffffffffffffffffffffffffffffffff021916908373ffffffffffffffffffffffffffffffffffffffff16021790555060208201518160010160006101000a81548173ffffffffffffffffffffffffffffffffffffffff021916908373ffffffffffffffffffffffffffffffffffffffff160217905550604082015181600201556060820151816003015550506000808473ffffffffffffffffffffffffffffffffffffffff1673ffffffffffffffffffffffffffffffffffffffff16815260200190815260200160002060020160009054906101000a900460ff16156117a457600560008473ffffffffffffffffffffffffffffffffffffffff1673ffffffffffffffffffffffffffffffffffffffff16815260200190815260200160002060405180608001604052803373ffffffffffffffffffffffffffffffffffffffff1681526020018573ffffffffffffffffffffffffffffffffffffffff16815260200184815260200183815250908060018154018082558091505060019003906000526020600020906004020160009091909190915060008201518160000160006101000a81548173ffffffffffffffffffffffffffffffffffffffff021916908373ffffffffffffffffffffffffffffffffffffffff16021790555060208201518160010160006101000a81548173ffffffffffffffffffffffffffffffffffffffff021916908373ffffffffffffffffffffffffffffffffffffffff1602179055506040820151816002015560608201518160030155505060008060003373ffffffffffffffffffffffffffffffffffffffff1673ffffffffffffffffffffffffffffffffffffffff168152602001908152602001600020905060018160030160008282546117809190614304565b925050819055508281600401600082825461179b9190614304565b92505081905550505b8273ffffffffffffffffffffffffffffffffffffffff163373ffffffffffffffffffffffffffffffffffffffff167f37a8423c3c64fa67dd069b5089f600b20b6a22decaa7dc3cc251ad75896b539e84846040516118039291906146d6565b60405180910390a3505050565b60608060606000600460008673ffffffffffffffffffffffffffffffffffffffff1673ffffffffffffffffffffffffffffffffffffffff168152602001908152602001600020805480602002602001604051908101604052809291908181526020016000905b8282101561196857838290600052602060002090600402016040518060800160405290816000820160009054906101000a900473ffffffffffffffffffffffffffffffffffffffff1673ffffffffffffffffffffffffffffffffffffffff1673ffffffffffffffffffffffffffffffffffffffff1681526020016001820160009054906101000a900473ffffffffffffffffffffffffffffffffffffffff1673ffffffffffffffffffffffffffffffffffffffff1673ffffffffffffffffffffffffffffffffffffffff1681526020016002820154815260200160038201548152505081526020019060010190611876565b5050505090506000815190508067ffffffffffffffff81111561198e5761198d613470565b5b6040519080825280602002602001820160405280156119bc5781602001602082028036833780820191505090505b5094508067ffffffffffffffff8111156119d9576119d8613470565b5b604051908082528060200260200182016040528015611a075781602001602082028036833780820191505090505b5093508067ffffffffffffffff811115611a2457611a23613470565b5b604051908082528060200260200182016040528015611a525781602001602082028036833780820191505090505b50925060005b81811015611b5557828181518110611a7357611a7261412e565b5b602002602001015160200151868281518110611a9257611a9161412e565b5b602002602001019073ffffffffffffffffffffffffffffffffffffffff16908173ffffffffffffffffffffffffffffffffffffffff1681525050828181518110611adf57611ade61412e565b5b602002602001015160400151858281518110611afe57611afd61412e565b5b602002602001018181525050828181518110611b1d57611b1c61412e565b5b602002602001015160600151848281518110611b3c57611b3b61412e565b5b6020026020010181815250508080600101915050611a58565b5050509193909250565b606080606080600660009054906101000a900473ffffffffffffffffffffffffffffffffffffffff1673ffffffffffffffffffffffffffffffffffffffff163373ffffffffffffffffffffffffffffffffffffffff1614611bf5576040517f08c379a0000000000000000000000000000000000000000000000000000000008152600401611bec90614771565b60405180910390fd5b6008548610611c39576040517f08c379a0000000000000000000000000000000000000000000000000000000008152600401611c30906147dd565b60405180910390fd5b600086600854611c49919061418c565b90506000868210611c5a5786611c5c565b815b90508067ffffffffffffffff811115611c7857611c77613470565b5b604051908082528060200260200182016040528015611ca65781602001602082028036833780820191505090505b5095508067ffffffffffffffff811115611cc357611cc2613470565b5b604051908082528060200260200182016040528015611cf657816020015b6060815260200190600190039081611ce15790505b5094508067ffffffffffffffff811115611d1357611d12613470565b5b604051908082528060200260200182016040528015611d415781602001602082028036833780820191505090505b5093508067ffffffffffffffff811115611d5e57611d5d613470565b5b604051908082528060200260200182016040528015611d8c5781602001602082028036833780820191505090505b50925060005b818110156120145760006007828b611daa9190614304565b81548110611dbb57611dba61412e565b5b9060005260206000200160009054906101000a900473ffffffffffffffffffffffffffffffffffffffff16905060008060008373ffffffffffffffffffffffffffffffffffffffff1673ffffffffffffffffffffffffffffffffffffffff1681526020019081526020016000206040518060a00160405290816000820160009054906101000a900473ffffffffffffffffffffffffffffffffffffffff1673ffffffffffffffffffffffffffffffffffffffff1673ffffffffffffffffffffffffffffffffffffffff168152602001600182018054611e9990613f1e565b80601f0160208091040260200160405190810160405280929190818152602001828054611ec590613f1e565b8015611f125780601f10611ee757610100808354040283529160200191611f12565b820191906000526020600020905b815481529060010190602001808311611ef557829003601f168201915b505050505081526020016002820160009054906101000a900460ff1615151515815260200160038201548152602001600482015481525050905081898481518110611f6057611f5f61412e565b5b602002602001019073ffffffffffffffffffffffffffffffffffffffff16908173ffffffffffffffffffffffffffffffffffffffff16815250508060200151888481518110611fb257611fb161412e565b5b60200260200101819052508060600151878481518110611fd557611fd461412e565b5b6020026020010181815250508060800151868481518110611ff957611ff861412e565b5b60200260200101818152505050508080600101915050611d92565b50505092959194509250565b60608060606000600560008673ffffffffffffffffffffffffffffffffffffffff1673ffffffffffffffffffffffffffffffffffffffff168152602001908152602001600020805480602002602001604051908101604052809291908181526020016000905b8282101561217857838290600052602060002090600402016040518060800160405290816000820160009054906101000a900473ffffffffffffffffffffffffffffffffffffffff1673ffffffffffffffffffffffffffffffffffffffff1673ffffffffffffffffffffffffffffffffffffffff1681526020016001820160009054906101000a900473ffffffffffffffffffffffffffffffffffffffff1673ffffffffffffffffffffffffffffffffffffffff1673ffffffffffffffffffffffffffffffffffffffff1681526020016002820154815260200160038201548152505081526020019060010190612086565b5050505090506000815190508067ffffffffffffffff81111561219e5761219d613470565b5b6040519080825280602002602001820160405280156121cc5781602001602082028036833780820191505090505b5094508067ffffffffffffffff8111156121e9576121e8613470565b5b6040519080825280602002602001820160405280156122175781602001602082028036833780820191505090505b5093508067ffffffffffffffff81111561223457612233613470565b5b6040519080825280602002602001820160405280156122625781602001602082028036833780820191505090505b50925060005b81811015612365578281815181106122835761228261412e565b5b6020026020010151600001518682815181106122a2576122a161412e565b5b602002602001019073ffffffffffffffffffffffffffffffffffffffff16908173ffffffffffffffffffffffffffffffffffffffff16815250508281815181106122ef576122ee61412e565b5b60200260200101516040015185828151811061230e5761230d61412e565b5b60200260200101818152505082818151811061232d5761232c61412e565b5b60200260200101516060015184828151811061234c5761234b61412e565b5b6020026020010181815250508080600101915050612268565b5050509193909250565b60b481565b606060008060008060008673ffffffffffffffffffffffffffffffffffffffff1673ffffffffffffffffffffffffffffffffffffffff1681526020019081526020016000206040518060a00160405290816000820160009054906101000a900473ffffffffffffffffffffffffffffffffffffffff1673ffffffffffffffffffffffffffffffffffffffff1673ffffffffffffffffffffffffffffffffffffffff16815260200160018201805461242a90613f1e565b80601f016020809104026020016040519081016040528092919081815260200182805461245690613f1e565b80156124a35780601f10612478576101008083540402835291602001916124a3565b820191906000526020600020905b81548152906001019060200180831161248657829003601f168201915b505050505081526020016002820160009054906101000a900460ff161515151581526020016003820154815260200160048201548152505090508060400151612521576040517f08c379a00000000000000000000000000000000000000000000000000000000081526004016125189061420c565b60405180910390fd5b806020015181606001518260800151935093509350509193909250565b6000600360008373ffffffffffffffffffffffffffffffffffffffff1673ffffffffffffffffffffffffffffffffffffffff168152602001908152602001600020805490509050919050565b60008060008060006001866040516125a29190613f8b565b90815260200160405180910390206040518060e00160405290816000820180546125cb90613f1e565b80601f01602080910402602001604051908101604052809291908181526020018280546125f790613f1e565b80156126445780601f1061261957610100808354040283529160200191612644565b820191906000526020600020905b81548152906001019060200180831161262757829003601f168201915b505050505081526020016001820160009054906101000a900473ffffffffffffffffffffffffffffffffffffffff1673ffffffffffffffffffffffffffffffffffffffff1673ffffffffffffffffffffffffffffffffffffffff16815260200160028201548152602001600382015481526020016004820160009054906101000a900460ff161515151581526020016004820160019054906101000a900460ff161515151581526020016004820160029054906101000a900473ffffffffffffffffffffffffffffffffffffffff1673ffffffffffffffffffffffffffffffffffffffff1673ffffffffffffffffffffffffffffffffffffffff16815250509050806080015194508060a001518061275f5750806060015142115b935080606001514210156127825742816060015161277d919061418c565b612785565b60005b92508060c001519150509193509193565b60006001826040516127a89190613f8b565b908152602001604051809103902090508060040160009054906101000a900460ff161561280a576040517f08c379a000000000000000000000000000000000000000000000000000000000815260040161280190613fee565b60405180910390fd5b8060040160019054906101000a900460ff161561285c576040517f08c379a000000000000000000000000000000000000000000000000000000000815260040161285390614849565b60405180910390fd5b80600301544211156128a3576040517f08c379a000000000000000000000000000000000000000000000000000000000815260040161289a906148b5565b60405180910390fd5b806002015434146128e9576040517f08c379a00000000000000000000000000000000000000000000000000000000081526004016128e090614921565b60405180910390fd5b60018160040160006101000a81548160ff021916908315150217905550338160040160026101000a81548173ffffffffffffffffffffffffffffffffffffffff021916908373ffffffffffffffffffffffffffffffffffffffff16021790555060008060008360010160009054906101000a900473ffffffffffffffffffffffffffffffffffffffff1673ffffffffffffffffffffffffffffffffffffffff1673ffffffffffffffffffffffffffffffffffffffff168152602001908152602001600020905060018160030160008282546129c49190614304565b92505081905550348160040160008282546129df9190614304565b92505081905550600260008360010160009054906101000a900473ffffffffffffffffffffffffffffffffffffffff1673ffffffffffffffffffffffffffffffffffffffff1673ffffffffffffffffffffffffffffffffffffffff16815260200190815260200160002082908060018154018082558091505060019003906000526020600020906005020160009091909190915060008201816000019081612a879190614957565b506001820160009054906101000a900473ffffffffffffffffffffffffffffffffffffffff168160010160006101000a81548173ffffffffffffffffffffffffffffffffffffffff021916908373ffffffffffffffffffffffffffffffffffffffff16021790555060028201548160020155600382015481600301556004820160009054906101000a900460ff168160040160006101000a81548160ff0219169083151502179055506004820160019054906101000a900460ff168160040160016101000a81548160ff0219169083151502179055506004820160029054906101000a900473ffffffffffffffffffffffffffffffffffffffff168160040160026101000a81548173ffffffffffffffffffffffffffffffffffffffff021916908373ffffffffffffffffffffffffffffffffffffffff1602179055505050600360003373ffffffffffffffffffffffffffffffffffffffff1673ffffffffffffffffffffffffffffffffffffffff1681526020019081526020016000206040518060a001604052808581526020018460010160009054906101000a900473ffffffffffffffffffffffffffffffffffffffff1673ffffffffffffffffffffffffffffffffffffffff168152602001836001018054612c6590613f1e565b80601f0160208091040260200160405190810160405280929190818152602001828054612c9190613f1e565b8015612cde5780601f10612cb357610100808354040283529160200191612cde565b820191906000526020600020905b815481529060010190602001808311612cc157829003601f168201915b505050505081526020013481526020014281525090806001815401808255809150506001900390600052602060002090600502016000909190919091506000820151816000019081612d3091906144e4565b5060208201518160010160006101000a81548173ffffffffffffffffffffffffffffffffffffffff021916908373ffffffffffffffffffffffffffffffffffffffff1602179055506040820151816002019081612d8d91906144e4565b506060820151816003015560808201518160040155505060008260010160009054906101000a900473ffffffffffffffffffffffffffffffffffffffff1673ffffffffffffffffffffffffffffffffffffffff1634604051612dee90614a70565b60006040518083038185875af1925050503d8060008114612e2b576040519150601f19603f3d011682016040523d82523d6000602084013e612e30565b606091505b5050905080612e74576040517f08c379a0000000000000000000000000000000000000000000000000000000008152600401612e6b90614ad1565b60405180910390fd5b8260010160009054906101000a900473ffffffffffffffffffffffffffffffffffffffff1673ffffffffffffffffffffffffffffffffffffffff163373ffffffffffffffffffffffffffffffffffffffff167f34ddb4977c7a6a68d953dc3ba5fd644201e8a9393f14165b9337c4b21841818d8634604051612ef7929190614af1565b60405180910390a350505050565b60608060608060606000600360008873ffffffffffffffffffffffffffffffffffffffff1673ffffffffffffffffffffffffffffffffffffffff168152602001908152602001600020805480602002602001604051908101604052809291908181526020016000905b8282101561312e57838290600052602060002090600502016040518060a0016040529081600082018054612fa190613f1e565b80601f0160208091040260200160405190810160405280929190818152602001828054612fcd90613f1e565b801561301a5780601f10612fef5761010080835404028352916020019161301a565b820191906000526020600020905b815481529060010190602001808311612ffd57829003601f168201915b505050505081526020016001820160009054906101000a900473ffffffffffffffffffffffffffffffffffffffff1673ffffffffffffffffffffffffffffffffffffffff1673ffffffffffffffffffffffffffffffffffffffff16815260200160028201805461308990613f1e565b80601f01602080910402602001604051908101604052809291908181526020018280546130b590613f1e565b80156131025780601f106130d757610100808354040283529160200191613102565b820191906000526020600020905b8154815290600101906020018083116130e557829003601f168201915b505050505081526020016003820154815260200160048201548152505081526020019060010190612f6e565b5050505090506000815190508067ffffffffffffffff81111561315457613153613470565b5b60405190808252806020026020018201604052801561318757816020015b60608152602001906001900390816131725790505b5096508067ffffffffffffffff8111156131a4576131a3613470565b5b6040519080825280602002602001820160405280156131d25781602001602082028036833780820191505090505b5095508067ffffffffffffffff8111156131ef576131ee613470565b5b60405190808252806020026020018201604052801561322257816020015b606081526020019060019003908161320d5790505b5094508067ffffffffffffffff81111561323f5761323e613470565b5b60405190808252806020026020018201604052801561326d5781602001602082028036833780820191505090505b5093508067ffffffffffffffff81111561328a57613289613470565b5b6040519080825280602002602001820160405280156132b85781602001602082028036833780820191505090505b50925060005b81811015613435578281815181106132d9576132d861412e565b5b6020026020010151600001518882815181106132f8576132f761412e565b5b60200260200101819052508281815181106133165761331561412e565b5b6020026020010151602001518782815181106133355761333461412e565b5b602002602001019073ffffffffffffffffffffffffffffffffffffffff16908173ffffffffffffffffffffffffffffffffffffffff16815250508281815181106133825761338161412e565b5b6020026020010151604001518682815181106133a1576133a061412e565b5b60200260200101819052508281815181106133bf576133be61412e565b5b6020026020010151606001518582815181106133de576133dd61412e565b5b6020026020010181815250508281815181106133fd576133fc61412e565b5b60200260200101516080015184828151811061341c5761341b61412e565b5b60200260200101818152505080806001019150506132be565b50505091939590929450565b6000604051905090565b600080fd5b600080fd5b600080fd5b600080fd5b6000601f19601f8301169050919050565b7f4e487b7100000000000000000000000000000000000000000000000000000000600052604160045260246000fd5b6134a88261345f565b810181811067ffffffffffffffff821117156134c7576134c6613470565b5b80604052505050565b60006134da613441565b90506134e6828261349f565b919050565b600067ffffffffffffffff82111561350657613505613470565b5b61350f8261345f565b9050602081019050919050565b82818337600083830152505050565b600061353e613539846134eb565b6134d0565b90508281526020810184848401111561355a5761355961345a565b5b61356584828561351c565b509392505050565b600082601f83011261358257613581613455565b5b813561359284826020860161352b565b91505092915050565b6000602082840312156135b1576135b061344b565b5b600082013567ffffffffffffffff8111156135cf576135ce613450565b5b6135db8482850161356d565b91505092915050565b600081519050919050565b600082825260208201905092915050565b60005b8381101561361e578082015181840152602081019050613603565b60008484015250505050565b6000613635826135e4565b61363f81856135ef565b935061364f818560208601613600565b6136588161345f565b840191505092915050565b600073ffffffffffffffffffffffffffffffffffffffff82169050919050565b600061368e82613663565b9050919050565b61369e81613683565b82525050565b6000819050919050565b6136b7816136a4565b82525050565b60008115159050919050565b6136d2816136bd565b82525050565b60006136e382613663565b9050919050565b6136f3816136d8565b82525050565b600060e0820190508181036000830152613713818a61362a565b90506137226020830189613695565b61372f60408301886136ae565b61373c60608301876136ae565b61374960808301866136c9565b61375660a08301856136c9565b61376360c08301846136ea565b98975050505050505050565b613778816136d8565b811461378357600080fd5b50565b6000813590506137958161376f565b92915050565b6000602082840312156137b1576137b061344b565b5b60006137bf84828501613786565b91505092915050565b600081519050919050565b600082825260208201905092915050565b6000819050602082019050919050565b600082825260208201905092915050565b6000613810826135e4565b61381a81856137f4565b935061382a818560208601613600565b6138338161345f565b840191505092915050565b600061384a8383613805565b905092915050565b6000602082019050919050565b600061386a826137c8565b61387481856137d3565b935083602082028501613886856137e4565b8060005b858110156138c257848403895281516138a3858261383e565b94506138ae83613852565b925060208a0199505060018101905061388a565b50829750879550505050505092915050565b600081519050919050565b600082825260208201905092915050565b6000819050602082019050919050565b613909816136d8565b82525050565b600061391b8383613900565b60208301905092915050565b6000602082019050919050565b600061393f826138d4565b61394981856138df565b9350613954836138f0565b8060005b8381101561398557815161396c888261390f565b975061397783613927565b925050600181019050613958565b5085935050505092915050565b600081519050919050565b600082825260208201905092915050565b6000819050602082019050919050565b6139c7816136a4565b82525050565b60006139d983836139be565b60208301905092915050565b6000602082019050919050565b60006139fd82613992565b613a07818561399d565b9350613a12836139ae565b8060005b83811015613a43578151613a2a88826139cd565b9750613a35836139e5565b925050600181019050613a16565b5085935050505092915050565b600081519050919050565b600082825260208201905092915050565b6000819050602082019050919050565b613a85816136bd565b82525050565b6000613a978383613a7c565b60208301905092915050565b6000602082019050919050565b6000613abb82613a50565b613ac58185613a5b565b9350613ad083613a6c565b8060005b83811015613b01578151613ae88882613a8b565b9750613af383613aa3565b925050600181019050613ad4565b5085935050505092915050565b600060a0820190508181036000830152613b28818861385f565b90508181036020830152613b3c8187613934565b90508181036040830152613b5081866139f2565b90508181036060830152613b6481856139f2565b90508181036080830152613b788184613ab0565b90509695505050505050565b613b8d816136a4565b8114613b9857600080fd5b50565b600081359050613baa81613b84565b92915050565b60008060408385031215613bc757613bc661344b565b5b600083013567ffffffffffffffff811115613be557613be4613450565b5b613bf18582860161356d565b9250506020613c0285828601613b9b565b9150509250929050565b6000602082019050613c2160008301846136ae565b92915050565b600060a082019050613c3c6000830188613695565b8181036020830152613c4e818761362a565b9050613c5d60408301866136c9565b613c6a60608301856136ae565b613c7760808301846136ae565b9695505050505050565b600060208284031215613c9757613c9661344b565b5b6000613ca584828501613b9b565b91505092915050565b6000602082019050613cc360008301846136ea565b92915050565b60008060408385031215613ce057613cdf61344b565b5b6000613cee85828601613786565b9250506020613cff85828601613b9b565b9150509250929050565b60006060820190508181036000830152613d238186613934565b90508181036020830152613d3781856139f2565b90508181036040830152613d4b81846139f2565b9050949350505050565b60008060408385031215613d6c57613d6b61344b565b5b6000613d7a85828601613b9b565b9250506020613d8b85828601613b9b565b9150509250929050565b60006080820190508181036000830152613daf8187613934565b90508181036020830152613dc3818661385f565b90508181036040830152613dd781856139f2565b90508181036060830152613deb81846139f2565b905095945050505050565b60006060820190508181036000830152613e10818661362a565b9050613e1f60208301856136ae565b613e2c60408301846136ae565b949350505050565b6000608082019050613e4960008301876136c9565b613e5660208301866136c9565b613e6360408301856136ae565b613e7060608301846136ea565b95945050505050565b600060a0820190508181036000830152613e93818861385f565b90508181036020830152613ea78187613934565b90508181036040830152613ebb818661385f565b90508181036060830152613ecf81856139f2565b90508181036080830152613ee381846139f2565b90509695505050505050565b7f4e487b7100000000000000000000000000000000000000000000000000000000600052602260045260246000fd5b60006002820490506001821680613f3657607f821691505b602082108103613f4957613f48613eef565b5b50919050565b600081905092915050565b6000613f65826135e4565b613f6f8185613f4f565b9350613f7f818560208601613600565b80840191505092915050565b6000613f978284613f5a565b915081905092915050565b7f5061796d656e7420616c726561647920636f6d706c6574656400000000000000600082015250565b6000613fd86019836135ef565b9150613fe382613fa2565b602082019050919050565b6000602082019050818103600083015261400781613fcb565b9050919050565b7f5061796d656e7420616c7265616479206d61726b65642061732065787069726560008201527f6400000000000000000000000000000000000000000000000000000000000000602082015250565b600061406a6021836135ef565b91506140758261400e565b604082019050919050565b600060208201905081810360008301526140998161405d565b9050919050565b7f5061796d656e742077696e646f77207374696c6c206163746976650000000000600082015250565b60006140d6601b836135ef565b91506140e1826140a0565b602082019050919050565b60006020820190508181036000830152614105816140c9565b9050919050565b60006020820190508181036000830152614126818461362a565b905092915050565b7f4e487b7100000000000000000000000000000000000000000000000000000000600052603260045260246000fd5b7f4e487b7100000000000000000000000000000000000000000000000000000000600052601160045260246000fd5b6000614197826136a4565b91506141a2836136a4565b92508282039050818111156141ba576141b961415d565b5b92915050565b7f53656c6c6572206e6f7420726567697374657265640000000000000000000000600082015250565b60006141f66015836135ef565b9150614201826141c0565b602082019050919050565b60006020820190508181036000830152614225816141e9565b9050919050565b7f416d6f756e74206d7573742062652067726561746572207468616e2030000000600082015250565b6000614262601d836135ef565b915061426d8261422c565b602082019050919050565b6000602082019050818103600083015261429181614255565b9050919050565b7f5061796d656e7420494420616c72656164792065786973747300000000000000600082015250565b60006142ce6019836135ef565b91506142d982614298565b602082019050919050565b600060208201905081810360008301526142fd816142c1565b9050919050565b600061430f826136a4565b915061431a836136a4565b92508282019050808211156143325761433161415d565b5b92915050565b60008190508160005260206000209050919050565b60006020601f8301049050919050565b600082821b905092915050565b60006008830261439a7fffffffffffffffffffffffffffffffffffffffffffffffffffffffffffffffff8261435d565b6143a4868361435d565b95508019841693508086168417925050509392505050565b6000819050919050565b60006143e16143dc6143d7846136a4565b6143bc565b6136a4565b9050919050565b6000819050919050565b6143fb836143c6565b61440f614407826143e8565b84845461436a565b825550505050565b600090565b614424614417565b61442f8184846143f2565b505050565b5b818110156144535761444860008261441c565b600181019050614435565b5050565b601f8211156144985761446981614338565b6144728461434d565b81016020851015614481578190505b61449561448d8561434d565b830182614434565b50505b505050565b600082821c905092915050565b60006144bb6000198460080261449d565b1980831691505092915050565b60006144d483836144aa565b9150826002028217905092915050565b6144ed826135e4565b67ffffffffffffffff81111561450657614505613470565b5b6145108254613f1e565b61451b828285614457565b600060209050601f83116001811461454e576000841561453c578287015190505b61454685826144c8565b8655506145ae565b601f19841661455c86614338565b60005b828110156145845784890151825560018201915060208501945060208101905061455f565b868310156145a1578489015161459d601f8916826144aa565b8355505b6001600288020188555050505b505050505050565b7f53656c6c657220616c7265616479207265676973746572656400000000000000600082015250565b60006145ec6019836135ef565b91506145f7826145b6565b602082019050919050565b6000602082019050818103600083015261461b816145df565b9050919050565b7f427573696e657373206e616d652063616e6e6f7420626520656d707479000000600082015250565b6000614658601d836135ef565b915061466382614622565b602082019050919050565b600060208201905081810360008301526146878161464b565b9050919050565b6000614699826136a4565b91507fffffffffffffffffffffffffffffffffffffffffffffffffffffffffffffffff82036146cb576146ca61415d565b5b600182019050919050565b60006040820190506146eb60008301856136ae565b6146f860208301846136ae565b9392505050565b7f4f6e6c79206f776e65722063616e20706572666f726d2074686973206163746960008201527f6f6e000000000000000000000000000000000000000000000000000000000000602082015250565b600061475b6022836135ef565b9150614766826146ff565b604082019050919050565b6000602082019050818103600083015261478a8161474e565b9050919050565b7f4f6666736574206f7574206f6620626f756e6473000000000000000000000000600082015250565b60006147c76014836135ef565b91506147d282614791565b602082019050919050565b600060208201905081810360008301526147f6816147ba565b9050919050565b7f5061796d656e7420726571756573742065787069726564000000000000000000600082015250565b60006148336017836135ef565b915061483e826147fd565b602082019050919050565b6000602082019050818103600083015261486281614826565b9050919050565b7f5061796d656e742077696e646f77206578706972656400000000000000000000600082015250565b600061489f6016836135ef565b91506148aa82614869565b602082019050919050565b600060208201905081810360008301526148ce81614892565b9050919050565b7f496e636f7272656374207061796d656e7420616d6f756e740000000000000000600082015250565b600061490b6018836135ef565b9150614916826148d5565b602082019050919050565b6000602082019050818103600083015261493a816148fe565b9050919050565b60008154905061495081613f1e565b9050919050565b818103614965575050614a3d565b61496e82614941565b67ffffffffffffffff81111561498757614986613470565b5b6149918254613f1e565b61499c828285614457565b6000601f8311600181146149cb57600084156149b9578287015490505b6149c385826144c8565b865550614a36565b601f1984166149d987614338565b96506149e486614338565b60005b82811015614a0c578489015482556001820191506001850194506020810190506149e7565b86831015614a295784890154614a25601f8916826144aa565b8355505b6001600288020188555050505b5050505050505b565b600081905092915050565b50565b6000614a5a600083614a3f565b9150614a6582614a4a565b600082019050919050565b6000614a7b82614a4d565b9150819050919050565b7f4661696c656420746f2073656e64207061796d656e7420746f2073656c6c6572600082015250565b6000614abb6020836135ef565b9150614ac682614a85565b602082019050919050565b60006020820190508181036000830152614aea81614aae565b9050919050565b60006040820190508181036000830152614b0b818561362a565b9050614b1a60208301846136ae565b939250505056fea26469706673582212200722e24438cd035be35b0ef7dcf99007d403b4ceb2c5c795b94ee9145b7cd5e764736f6c634300081b0033",
  "linkReferences": {},
  "deployedLinkReferences": {}
}