{
  "_format": "hh-sol-artifact-1",
  "contractName": "PaymentPlatform",
  "sourceName": "contracts/PaymentPlatform.sol",
  "abi": [
    {
      "inputs": [],
      "stateMutability": "nonpayable",
      "type": "constructor"
    },
    {
      "anonymous": false,
      "inputs": [
        {
          "indexed": false,
          "internalType": "string",
          "name": "paymentId",
          "type": "string"
        },
        {
          "indexed": true,
          "internalType": "address",
          "name": "buyer",
          "type": "address"
        },
        {
          "indexed": true,
          "internalType": "address",
          "name": "seller",
          "type": "address"
        },
        {
          "indexed": false,
          "internalType": "uint256",
          "name": "amount",
          "type": "uint256"
        }
      ],
      "name": "PaymentCompleted",
      "type": "event"
    },
    {
      "anonymous": false,
      "inputs": [
        {
          "indexed": false,
          "internalType": "string",
          "name": "paymentId",
          "type": "string"
        }
      ],
      "name": "PaymentExpired",
      "type": "event"
    },
    {
      "anonymous": false,
      "inputs": [
        {
          "indexed": false,
          "internalType": "string",
          "name": "paymentId",
          "type": "string"
        },
        {
          "indexed": true,
          "internalType": "address",
          "name": "seller",
          "type": "address"
        },
        {
          "indexed": false,
          "internalType": "uint256",
          "name": "amount",
          "type": "uint256"
        },
        {
          "indexed": false,
          "internalType": "uint256",
          "name": "expiryTime",
          "type": "uint256"
        }
      ],
      "name": "PaymentRequestCreated",
      "type": "event"
    },
    {
      "anonymous": false,
      "inputs": [
        {
          "indexed": true,
          "internalType": "address",
          "name": "sellerAddress",
          "type": "address"
        },
        {
          "indexed": false,
          "internalType": "string",
          "name": "businessName",
          "type": "string"
        }
      ],
      "name": "SellerRegistered",
      "type": "event"
    },
    {
      "inputs": [],
      "name": "PAYMENT_WINDOW",
      "outputs": [
        {
          "internalType": "uint256",
          "name": "",
          "type": "uint256"
        }
      ],
      "stateMutability": "view",
      "type": "function"
    },
    {
      "inputs": [
        {
          "internalType": "string",
          "name": "paymentId",
          "type": "string"
        }
      ],
      "name": "checkPaymentStatus",
      "outputs": [
        {
          "internalType": "bool",
          "name": "isPaid",
          "type": "bool"
        },
        {
          "internalType": "bool",
          "name": "isExpired",
          "type": "bool"
        },
        {
          "internalType": "uint256",
          "name": "remainingTime",
          "type": "uint256"
        },
        {
          "internalType": "address",
          "name": "buyer",
          "type": "address"
        }
      ],
      "stateMutability": "view",
      "type": "function"
    },
    {
      "inputs": [
        {
          "internalType": "string",
          "name": "paymentId",
          "type": "string"
        },
        {
          "internalType": "uint256",
          "name": "amount",
          "type": "uint256"
        }
      ],
      "name": "createPaymentRequest",
      "outputs": [],
      "stateMutability": "nonpayable",
      "type": "function"
    },
    {
      "inputs": [
        {
          "internalType": "uint256",
          "name": "offset",
          "type": "uint256"
        },
        {
          "internalType": "uint256",
          "name": "limit",
          "type": "uint256"
        }
      ],
      "name": "getAllSellers",
      "outputs": [
        {
          "internalType": "address[]",
          "name": "addresses",
          "type": "address[]"
        },
        {
          "internalType": "string[]",
          "name": "businessNames",
          "type": "string[]"
        },
        {
          "internalType": "uint256[]",
          "name": "transactions",
          "type": "uint256[]"
        },
        {
          "internalType": "uint256[]",
          "name": "amounts",
          "type": "uint256[]"
        }
      ],
      "stateMutability": "view",
      "type": "function"
    },
    {
      "inputs": [
        {
          "internalType": "address",
          "name": "client",
          "type": "address"
        }
      ],
      "name": "getClientPaymentCount",
      "outputs": [
        {
          "internalType": "uint256",
          "name": "",
          "type": "uint256"
        }
      ],
      "stateMutability": "view",
      "type": "function"
    },
    {
      "inputs": [
        {
          "internalType": "address",
          "name": "client",
          "type": "address"
        }
      ],
      "name": "getClientPaymentHistory",
      "outputs": [
        {
          "internalType": "string[]",
          "name": "paymentIds",
          "type": "string[]"
        },
        {
          "internalType": "address[]",
          "name": "sellers",
          "type": "address[]"
        },
        {
          "internalType": "string[]",
          "name": "businessNames",
          "type": "string[]"
        },
        {
          "internalType": "uint256[]",
          "name": "amounts",
          "type": "uint256[]"
        },
        {
          "internalType": "uint256[]",
          "name": "timestamps",
          "type": "uint256[]"
        }
      ],
      "stateMutability": "view",
      "type": "function"
    },
    {
      "inputs": [
        {
          "internalType": "address",
          "name": "seller",
          "type": "address"
        }
      ],
      "name": "getSellerPaymentHistory",
      "outputs": [
        {
          "internalType": "string[]",
          "name": "paymentIds",
          "type": "string[]"
        },
        {
          "internalType": "address[]",
          "name": "buyers",
          "type": "address[]"
        },
        {
          "internalType": "uint256[]",
          "name": "amounts",
          "type": "uint256[]"
        },
        {
          "internalType": "uint256[]",
          "name": "timestamps",
          "type": "uint256[]"
        },
        {
          "internalType": "bool[]",
          "name": "isPaid",
          "type": "bool[]"
        }
      ],
      "stateMutability": "view",
      "type": "function"
    },
    {
      "inputs": [
        {
          "internalType": "address",
          "name": "sellerAddress",
          "type": "address"
        }
      ],
      "name": "getSellerStats",
      "outputs": [
        {
          "internalType": "string",
          "name": "businessName",
          "type": "string"
        },
        {
          "internalType": "uint256",
          "name": "totalTransactions",
          "type": "uint256"
        },
        {
          "internalType": "uint256",
          "name": "totalAmount",
          "type": "uint256"
        }
      ],
      "stateMutability": "view",
      "type": "function"
    },
    {
      "inputs": [
        {
          "internalType": "string",
          "name": "paymentId",
          "type": "string"
        }
      ],
      "name": "makePayment",
      "outputs": [],
      "stateMutability": "payable",
      "type": "function"
    },
    {
      "inputs": [
        {
          "internalType": "string",
          "name": "paymentId",
          "type": "string"
        }
      ],
      "name": "markPaymentExpired",
      "outputs": [],
      "stateMutability": "nonpayable",
      "type": "function"
    },
    {
      "inputs": [],
      "name": "owner",
      "outputs": [
        {
          "internalType": "address",
          "name": "",
          "type": "address"
        }
      ],
      "stateMutability": "view",
      "type": "function"
    },
    {
      "inputs": [
        {
          "internalType": "string",
          "name": "",
          "type": "string"
        }
      ],
      "name": "paymentRequests",
      "outputs": [
        {
          "internalType": "string",
          "name": "paymentId",
          "type": "string"
        },
        {
          "internalType": "address payable",
          "name": "seller",
          "type": "address"
        },
        {
          "internalType": "uint256",
          "name": "amount",
          "type": "uint256"
        },
        {
          "internalType": "uint256",
          "name": "expiryTime",
          "type": "uint256"
        },
        {
          "internalType": "bool",
          "name": "isPaid",
          "type": "bool"
        },
        {
          "internalType": "bool",
          "name": "isExpired",
          "type": "bool"
        },
        {
          "internalType": "address",
          "name": "buyer",
          "type": "address"
        }
      ],
      "stateMutability": "view",
      "type": "function"
    },
    {
      "inputs": [
        {
          "internalType": "string",
          "name": "businessName",
          "type": "string"
        }
      ],
      "name": "registerSeller",
      "outputs": [],
      "stateMutability": "nonpayable",
      "type": "function"
    },
    {
      "inputs": [
        {
          "internalType": "uint256",
          "name": "",
          "type": "uint256"
        }
      ],
      "name": "sellerAddresses",
      "outputs": [
        {
          "internalType": "address",
          "name": "",
          "type": "address"
        }
      ],
      "stateMutability": "view",
      "type": "function"
    },
    {
      "inputs": [
        {
          "internalType": "address",
          "name": "",
          "type": "address"
        }
      ],
      "name": "sellers",
      "outputs": [
        {
          "internalType": "address payable",
          "name": "walletAddress",
          "type": "address"
        },
        {
          "internalType": "string",
          "name": "businessName",
          "type": "string"
        },
        {
          "internalType": "bool",
          "name": "isRegistered",
          "type": "bool"
        },
        {
          "internalType": "uint256",
          "name": "totalTransactions",
          "type": "uint256"
        },
        {
          "internalType": "uint256",
          "name": "totalAmount",
          "type": "uint256"
        }
      ],
      "stateMutability": "view",
      "type": "function"
    },
    {
      "inputs": [],
      "name": "totalSellers",
      "outputs": [
        {
          "internalType": "uint256",
          "name": "",
          "type": "uint256"
        }
      ],
      "stateMutability": "view",
      "type": "function"
    }
  ],
  "bytecode": "0x6080604052348015600f57600080fd5b5033600460006101000a81548173ffffffffffffffffffffffffffffffffffffffff021916908373ffffffffffffffffffffffffffffffffffffffff1602179055506000600681905550613f4a806100686000396000f3fe6080604052600436106100f35760003560e01c80638da5cb5b1161008a578063e09eb8c411610059578063e09eb8c414610375578063ec5d53c0146103b2578063f9e823e6146103f2578063ffe8704d1461040e576100f3565b80638da5cb5b146102a05780639e18298a146102cb578063c6c489621461030b578063ce36ab7f14610336576100f3565b806363b48852116100c657806363b48852146101ce5780636d3f4b7a146101f75780636d47ab72146102225780636eb78e6514610263576100f3565b8063028f919d146100f85780632a3273251461013b5780632a48142b14610164578063316a29fc146101a5575b600080fd5b34801561010457600080fd5b5061011f600480360381019061011a9190612a43565b61044f565b6040516101329796959493929190612ba1565b60405180910390f35b34801561014757600080fd5b50610162600480360381019061015d9190612a43565b610589565b005b34801561017057600080fd5b5061018b60048036038101906101869190612c43565b6106ed565b60405161019c959493929190612fb6565b60405180910390f35b3480156101b157600080fd5b506101cc60048036038101906101c79190613058565b610c31565b005b3480156101da57600080fd5b506101f560048036038101906101f09190612a43565b610f4d565b005b34801561020357600080fd5b5061020c611200565b60405161021991906130b4565b60405180910390f35b34801561022e57600080fd5b5061024960048036038101906102449190612c43565b611206565b60405161025a9594939291906130cf565b60405180910390f35b34801561026f57600080fd5b5061028a60048036038101906102859190613129565b6112f1565b6040516102979190613156565b60405180910390f35b3480156102ac57600080fd5b506102b5611330565b6040516102c29190613156565b60405180910390f35b3480156102d757600080fd5b506102f260048036038101906102ed9190613171565b611356565b60405161030294939291906131b1565b60405180910390f35b34801561031757600080fd5b50610320611817565b60405161032d91906130b4565b60405180910390f35b34801561034257600080fd5b5061035d60048036038101906103589190612c43565b61181c565b60405161036c93929190613212565b60405180910390f35b34801561038157600080fd5b5061039c60048036038101906103979190612c43565b6119e6565b6040516103a991906130b4565b60405180910390f35b3480156103be57600080fd5b506103d960048036038101906103d49190612a43565b611a32565b6040516103e99493929190613250565b60405180910390f35b61040c60048036038101906104079190612a43565b611c3e565b005b34801561041a57600080fd5b5061043560048036038101906104309190612c43565b6123ad565b604051610446959493929190613295565b60405180910390f35b6001818051602081018201805184825260208301602085012081835280955050505050506000915090508060000180546104889061333a565b80601f01602080910402602001604051908101604052809291908181526020018280546104b49061333a565b80156105015780601f106104d657610100808354040283529160200191610501565b820191906000526020600020905b8154815290600101906020018083116104e457829003601f168201915b5050505050908060010160009054906101000a900473ffffffffffffffffffffffffffffffffffffffff16908060020154908060030154908060040160009054906101000a900460ff16908060040160019054906101000a900460ff16908060040160029054906101000a900473ffffffffffffffffffffffffffffffffffffffff16905087565b600060018260405161059b91906133a7565b908152602001604051809103902090508060040160009054906101000a900460ff16156105fd576040517f08c379a00000000000000000000000000000000000000000000000000000000081526004016105f49061340a565b60405180910390fd5b8060040160019054906101000a900460ff161561064f576040517f08c379a00000000000000000000000000000000000000000000000000000000081526004016106469061349c565b60405180910390fd5b80600301544211610695576040517f08c379a000000000000000000000000000000000000000000000000000000000815260040161068c90613508565b60405180910390fd5b60018160040160016101000a81548160ff0219169083151502179055507fd4ffa26973067f1a65cfbf5b389db5616b7274527f2e8a5651a297a46ddf8474826040516106e19190613528565b60405180910390a15050565b60608060608060606000600260008873ffffffffffffffffffffffffffffffffffffffff1673ffffffffffffffffffffffffffffffffffffffff168152602001908152602001600020805480602002602001604051908101604052809291908181526020016000905b8282101561091057838290600052602060002090600502016040518060e00160405290816000820180546107899061333a565b80601f01602080910402602001604051908101604052809291908181526020018280546107b59061333a565b80156108025780601f106107d757610100808354040283529160200191610802565b820191906000526020600020905b8154815290600101906020018083116107e557829003601f168201915b505050505081526020016001820160009054906101000a900473ffffffffffffffffffffffffffffffffffffffff1673ffffffffffffffffffffffffffffffffffffffff1673ffffffffffffffffffffffffffffffffffffffff16815260200160028201548152602001600382015481526020016004820160009054906101000a900460ff161515151581526020016004820160019054906101000a900460ff161515151581526020016004820160029054906101000a900473ffffffffffffffffffffffffffffffffffffffff1673ffffffffffffffffffffffffffffffffffffffff1673ffffffffffffffffffffffffffffffffffffffff168152505081526020019060010190610756565b5050505090506000815190508067ffffffffffffffff81111561093657610935612918565b5b60405190808252806020026020018201604052801561096957816020015b60608152602001906001900390816109545790505b5096508067ffffffffffffffff81111561098657610985612918565b5b6040519080825280602002602001820160405280156109b45781602001602082028036833780820191505090505b5095508067ffffffffffffffff8111156109d1576109d0612918565b5b6040519080825280602002602001820160405280156109ff5781602001602082028036833780820191505090505b5094508067ffffffffffffffff811115610a1c57610a1b612918565b5b604051908082528060200260200182016040528015610a4a5781602001602082028036833780820191505090505b5093508067ffffffffffffffff811115610a6757610a66612918565b5b604051908082528060200260200182016040528015610a955781602001602082028036833780820191505090505b50925060005b81811015610c2557828181518110610ab657610ab561354a565b5b602002602001015160000151888281518110610ad557610ad461354a565b5b6020026020010181905250828181518110610af357610af261354a565b5b602002602001015160c00151878281518110610b1257610b1161354a565b5b602002602001019073ffffffffffffffffffffffffffffffffffffffff16908173ffffffffffffffffffffffffffffffffffffffff1681525050828181518110610b5f57610b5e61354a565b5b602002602001015160400151868281518110610b7e57610b7d61354a565b5b60200260200101818152505060b4838281518110610b9f57610b9e61354a565b5b602002602001015160600151610bb591906135a8565b858281518110610bc857610bc761354a565b5b602002602001018181525050828181518110610be757610be661354a565b5b602002602001015160800151848281518110610c0657610c0561354a565b5b6020026020010190151590811515815250508080600101915050610a9b565b50505091939590929450565b6000803373ffffffffffffffffffffffffffffffffffffffff1673ffffffffffffffffffffffffffffffffffffffff16815260200190815260200160002060020160009054906101000a900460ff16610cbf576040517f08c379a0000000000000000000000000000000000000000000000000000000008152600401610cb690613628565b60405180910390fd5b60008111610d02576040517f08c379a0000000000000000000000000000000000000000000000000000000008152600401610cf990613694565b60405180910390fd5b6000600183604051610d1491906133a7565b90815260200160405180910390206002015414610d66576040517f08c379a0000000000000000000000000000000000000000000000000000000008152600401610d5d90613700565b60405180910390fd5b600060b442610d759190613720565b90506040518060e001604052808481526020013373ffffffffffffffffffffffffffffffffffffffff168152602001838152602001828152602001600015158152602001600015158152602001600073ffffffffffffffffffffffffffffffffffffffff16815250600184604051610ded91906133a7565b90815260200160405180910390206000820151816000019081610e109190613900565b5060208201518160010160006101000a81548173ffffffffffffffffffffffffffffffffffffffff021916908373ffffffffffffffffffffffffffffffffffffffff160217905550604082015181600201556060820151816003015560808201518160040160006101000a81548160ff02191690831515021790555060a08201518160040160016101000a81548160ff02191690831515021790555060c08201518160040160026101000a81548173ffffffffffffffffffffffffffffffffffffffff021916908373ffffffffffffffffffffffffffffffffffffffff1602179055509050503373ffffffffffffffffffffffffffffffffffffffff167f3840251a2662bfc755f8055138b0ece56bbc33e5b234c35f9877b42c460bf4b2848484604051610f4093929190613212565b60405180910390a2505050565b6000803373ffffffffffffffffffffffffffffffffffffffff1673ffffffffffffffffffffffffffffffffffffffff16815260200190815260200160002060020160009054906101000a900460ff1615610fdc576040517f08c379a0000000000000000000000000000000000000000000000000000000008152600401610fd390613a1e565b60405180910390fd5b6000815111611020576040517f08c379a000000000000000000000000000000000000000000000000000000000815260040161101790613a8a565b60405180910390fd5b6040518060a001604052803373ffffffffffffffffffffffffffffffffffffffff1681526020018281526020016001151581526020016000815260200160008152506000803373ffffffffffffffffffffffffffffffffffffffff1673ffffffffffffffffffffffffffffffffffffffff16815260200190815260200160002060008201518160000160006101000a81548173ffffffffffffffffffffffffffffffffffffffff021916908373ffffffffffffffffffffffffffffffffffffffff16021790555060208201518160010190816110fc9190613900565b5060408201518160020160006101000a81548160ff02191690831515021790555060608201518160030155608082015181600401559050506005339080600181540180825580915050600190039060005260206000200160009091909190916101000a81548173ffffffffffffffffffffffffffffffffffffffff021916908373ffffffffffffffffffffffffffffffffffffffff160217905550600660008154809291906111aa90613aaa565b91905055503373ffffffffffffffffffffffffffffffffffffffff167fecef9454c60fab6a60b6f2aa319263c0f711cdb927c213e76687f7853b597842826040516111f59190613528565b60405180910390a250565b60065481565b60006020528060005260406000206000915090508060000160009054906101000a900473ffffffffffffffffffffffffffffffffffffffff169080600101805461124f9061333a565b80601f016020809104026020016040519081016040528092919081815260200182805461127b9061333a565b80156112c85780601f1061129d576101008083540402835291602001916112c8565b820191906000526020600020905b8154815290600101906020018083116112ab57829003601f168201915b5050505050908060020160009054906101000a900460ff16908060030154908060040154905085565b6005818154811061130157600080fd5b906000526020600020016000915054906101000a900473ffffffffffffffffffffffffffffffffffffffff1681565b600460009054906101000a900473ffffffffffffffffffffffffffffffffffffffff1681565b606080606080600460009054906101000a900473ffffffffffffffffffffffffffffffffffffffff1673ffffffffffffffffffffffffffffffffffffffff163373ffffffffffffffffffffffffffffffffffffffff16146113ec576040517f08c379a00000000000000000000000000000000000000000000000000000000081526004016113e390613b64565b60405180910390fd5b6006548610611430576040517f08c379a000000000000000000000000000000000000000000000000000000000815260040161142790613bd0565b60405180910390fd5b60008660065461144091906135a8565b905060008682106114515786611453565b815b90508067ffffffffffffffff81111561146f5761146e612918565b5b60405190808252806020026020018201604052801561149d5781602001602082028036833780820191505090505b5095508067ffffffffffffffff8111156114ba576114b9612918565b5b6040519080825280602002602001820160405280156114ed57816020015b60608152602001906001900390816114d85790505b5094508067ffffffffffffffff81111561150a57611509612918565b5b6040519080825280602002602001820160405280156115385781602001602082028036833780820191505090505b5093508067ffffffffffffffff81111561155557611554612918565b5b6040519080825280602002602001820160405280156115835781602001602082028036833780820191505090505b50925060005b8181101561180b5760006005828b6115a19190613720565b815481106115b2576115b161354a565b5b9060005260206000200160009054906101000a900473ffffffffffffffffffffffffffffffffffffffff16905060008060008373ffffffffffffffffffffffffffffffffffffffff1673ffffffffffffffffffffffffffffffffffffffff1681526020019081526020016000206040518060a00160405290816000820160009054906101000a900473ffffffffffffffffffffffffffffffffffffffff1673ffffffffffffffffffffffffffffffffffffffff1673ffffffffffffffffffffffffffffffffffffffff1681526020016001820180546116909061333a565b80601f01602080910402602001604051908101604052809291908181526020018280546116bc9061333a565b80156117095780601f106116de57610100808354040283529160200191611709565b820191906000526020600020905b8154815290600101906020018083116116ec57829003601f168201915b505050505081526020016002820160009054906101000a900460ff16151515158152602001600382015481526020016004820154815250509050818984815181106117575761175661354a565b5b602002602001019073ffffffffffffffffffffffffffffffffffffffff16908173ffffffffffffffffffffffffffffffffffffffff168152505080602001518884815181106117a9576117a861354a565b5b602002602001018190525080606001518784815181106117cc576117cb61354a565b5b60200260200101818152505080608001518684815181106117f0576117ef61354a565b5b60200260200101818152505050508080600101915050611589565b50505092959194509250565b60b481565b606060008060008060008673ffffffffffffffffffffffffffffffffffffffff1673ffffffffffffffffffffffffffffffffffffffff1681526020019081526020016000206040518060a00160405290816000820160009054906101000a900473ffffffffffffffffffffffffffffffffffffffff1673ffffffffffffffffffffffffffffffffffffffff1673ffffffffffffffffffffffffffffffffffffffff1681526020016001820180546118d29061333a565b80601f01602080910402602001604051908101604052809291908181526020018280546118fe9061333a565b801561194b5780601f106119205761010080835404028352916020019161194b565b820191906000526020600020905b81548152906001019060200180831161192e57829003601f168201915b505050505081526020016002820160009054906101000a900460ff1615151515815260200160038201548152602001600482015481525050905080604001516119c9576040517f08c379a00000000000000000000000000000000000000000000000000000000081526004016119c090613628565b60405180910390fd5b806020015181606001518260800151935093509350509193909250565b6000600360008373ffffffffffffffffffffffffffffffffffffffff1673ffffffffffffffffffffffffffffffffffffffff168152602001908152602001600020805490509050919050565b6000806000806000600186604051611a4a91906133a7565b90815260200160405180910390206040518060e0016040529081600082018054611a739061333a565b80601f0160208091040260200160405190810160405280929190818152602001828054611a9f9061333a565b8015611aec5780601f10611ac157610100808354040283529160200191611aec565b820191906000526020600020905b815481529060010190602001808311611acf57829003601f168201915b505050505081526020016001820160009054906101000a900473ffffffffffffffffffffffffffffffffffffffff1673ffffffffffffffffffffffffffffffffffffffff1673ffffffffffffffffffffffffffffffffffffffff16815260200160028201548152602001600382015481526020016004820160009054906101000a900460ff161515151581526020016004820160019054906101000a900460ff161515151581526020016004820160029054906101000a900473ffffffffffffffffffffffffffffffffffffffff1673ffffffffffffffffffffffffffffffffffffffff1673ffffffffffffffffffffffffffffffffffffffff16815250509050806080015194508060a0015180611c075750806060015142115b93508060600151421015611c2a57428160600151611c2591906135a8565b611c2d565b60005b92508060c001519150509193509193565b6000600182604051611c5091906133a7565b908152602001604051809103902090508060040160009054906101000a900460ff1615611cb2576040517f08c379a0000000000000000000000000000000000000000000000000000000008152600401611ca99061340a565b60405180910390fd5b8060040160019054906101000a900460ff1615611d04576040517f08c379a0000000000000000000000000000000000000000000000000000000008152600401611cfb90613c3c565b60405180910390fd5b8060030154421115611d4b576040517f08c379a0000000000000000000000000000000000000000000000000000000008152600401611d4290613ca8565b60405180910390fd5b80600201543414611d91576040517f08c379a0000000000000000000000000000000000000000000000000000000008152600401611d8890613d14565b60405180910390fd5b60018160040160006101000a81548160ff021916908315150217905550338160040160026101000a81548173ffffffffffffffffffffffffffffffffffffffff021916908373ffffffffffffffffffffffffffffffffffffffff16021790555060008060008360010160009054906101000a900473ffffffffffffffffffffffffffffffffffffffff1673ffffffffffffffffffffffffffffffffffffffff1673ffffffffffffffffffffffffffffffffffffffff16815260200190815260200160002090506001816003016000828254611e6c9190613720565b9250508190555034816004016000828254611e879190613720565b92505081905550600260008360010160009054906101000a900473ffffffffffffffffffffffffffffffffffffffff1673ffffffffffffffffffffffffffffffffffffffff1673ffffffffffffffffffffffffffffffffffffffff16815260200190815260200160002082908060018154018082558091505060019003906000526020600020906005020160009091909190915060008201816000019081611f2f9190613d4a565b506001820160009054906101000a900473ffffffffffffffffffffffffffffffffffffffff168160010160006101000a81548173ffffffffffffffffffffffffffffffffffffffff021916908373ffffffffffffffffffffffffffffffffffffffff16021790555060028201548160020155600382015481600301556004820160009054906101000a900460ff168160040160006101000a81548160ff0219169083151502179055506004820160019054906101000a900460ff168160040160016101000a81548160ff0219169083151502179055506004820160029054906101000a900473ffffffffffffffffffffffffffffffffffffffff168160040160026101000a81548173ffffffffffffffffffffffffffffffffffffffff021916908373ffffffffffffffffffffffffffffffffffffffff1602179055505050600360003373ffffffffffffffffffffffffffffffffffffffff1673ffffffffffffffffffffffffffffffffffffffff1681526020019081526020016000206040518060a001604052808581526020018460010160009054906101000a900473ffffffffffffffffffffffffffffffffffffffff1673ffffffffffffffffffffffffffffffffffffffff16815260200183600101805461210d9061333a565b80601f01602080910402602001604051908101604052809291908181526020018280546121399061333a565b80156121865780601f1061215b57610100808354040283529160200191612186565b820191906000526020600020905b81548152906001019060200180831161216957829003601f168201915b5050505050815260200134815260200142815250908060018154018082558091505060019003906000526020600020906005020160009091909190915060008201518160000190816121d89190613900565b5060208201518160010160006101000a81548173ffffffffffffffffffffffffffffffffffffffff021916908373ffffffffffffffffffffffffffffffffffffffff16021790555060408201518160020190816122359190613900565b506060820151816003015560808201518160040155505060008260010160009054906101000a900473ffffffffffffffffffffffffffffffffffffffff1673ffffffffffffffffffffffffffffffffffffffff163460405161229690613e63565b60006040518083038185875af1925050503d80600081146122d3576040519150601f19603f3d011682016040523d82523d6000602084013e6122d8565b606091505b505090508061231c576040517f08c379a000000000000000000000000000000000000000000000000000000000815260040161231390613ec4565b60405180910390fd5b8260010160009054906101000a900473ffffffffffffffffffffffffffffffffffffffff1673ffffffffffffffffffffffffffffffffffffffff163373ffffffffffffffffffffffffffffffffffffffff167f34ddb4977c7a6a68d953dc3ba5fd644201e8a9393f14165b9337c4b21841818d863460405161239f929190613ee4565b60405180910390a350505050565b60608060608060606000600360008873ffffffffffffffffffffffffffffffffffffffff1673ffffffffffffffffffffffffffffffffffffffff168152602001908152602001600020805480602002602001604051908101604052809291908181526020016000905b828210156125d657838290600052602060002090600502016040518060a00160405290816000820180546124499061333a565b80601f01602080910402602001604051908101604052809291908181526020018280546124759061333a565b80156124c25780601f10612497576101008083540402835291602001916124c2565b820191906000526020600020905b8154815290600101906020018083116124a557829003601f168201915b505050505081526020016001820160009054906101000a900473ffffffffffffffffffffffffffffffffffffffff1673ffffffffffffffffffffffffffffffffffffffff1673ffffffffffffffffffffffffffffffffffffffff1681526020016002820180546125319061333a565b80601f016020809104026020016040519081016040528092919081815260200182805461255d9061333a565b80156125aa5780601f1061257f576101008083540402835291602001916125aa565b820191906000526020600020905b81548152906001019060200180831161258d57829003601f168201915b505050505081526020016003820154815260200160048201548152505081526020019060010190612416565b5050505090506000815190508067ffffffffffffffff8111156125fc576125fb612918565b5b60405190808252806020026020018201604052801561262f57816020015b606081526020019060019003908161261a5790505b5096508067ffffffffffffffff81111561264c5761264b612918565b5b60405190808252806020026020018201604052801561267a5781602001602082028036833780820191505090505b5095508067ffffffffffffffff81111561269757612696612918565b5b6040519080825280602002602001820160405280156126ca57816020015b60608152602001906001900390816126b55790505b5094508067ffffffffffffffff8111156126e7576126e6612918565b5b6040519080825280602002602001820160405280156127155781602001602082028036833780820191505090505b5093508067ffffffffffffffff81111561273257612731612918565b5b6040519080825280602002602001820160405280156127605781602001602082028036833780820191505090505b50925060005b818110156128dd578281815181106127815761278061354a565b5b6020026020010151600001518882815181106127a05761279f61354a565b5b60200260200101819052508281815181106127be576127bd61354a565b5b6020026020010151602001518782815181106127dd576127dc61354a565b5b602002602001019073ffffffffffffffffffffffffffffffffffffffff16908173ffffffffffffffffffffffffffffffffffffffff168152505082818151811061282a5761282961354a565b5b6020026020010151604001518682815181106128495761284861354a565b5b60200260200101819052508281815181106128675761286661354a565b5b6020026020010151606001518582815181106128865761288561354a565b5b6020026020010181815250508281815181106128a5576128a461354a565b5b6020026020010151608001518482815181106128c4576128c361354a565b5b6020026020010181815250508080600101915050612766565b50505091939590929450565b6000604051905090565b600080fd5b600080fd5b600080fd5b600080fd5b6000601f19601f8301169050919050565b7f4e487b7100000000000000000000000000000000000000000000000000000000600052604160045260246000fd5b61295082612907565b810181811067ffffffffffffffff8211171561296f5761296e612918565b5b80604052505050565b60006129826128e9565b905061298e8282612947565b919050565b600067ffffffffffffffff8211156129ae576129ad612918565b5b6129b782612907565b9050602081019050919050565b82818337600083830152505050565b60006129e66129e184612993565b612978565b905082815260208101848484011115612a0257612a01612902565b5b612a0d8482856129c4565b509392505050565b600082601f830112612a2a57612a296128fd565b5b8135612a3a8482602086016129d3565b91505092915050565b600060208284031215612a5957612a586128f3565b5b600082013567ffffffffffffffff811115612a7757612a766128f8565b5b612a8384828501612a15565b91505092915050565b600081519050919050565b600082825260208201905092915050565b60005b83811015612ac6578082015181840152602081019050612aab565b60008484015250505050565b6000612add82612a8c565b612ae78185612a97565b9350612af7818560208601612aa8565b612b0081612907565b840191505092915050565b600073ffffffffffffffffffffffffffffffffffffffff82169050919050565b6000612b3682612b0b565b9050919050565b612b4681612b2b565b82525050565b6000819050919050565b612b5f81612b4c565b82525050565b60008115159050919050565b612b7a81612b65565b82525050565b6000612b8b82612b0b565b9050919050565b612b9b81612b80565b82525050565b600060e0820190508181036000830152612bbb818a612ad2565b9050612bca6020830189612b3d565b612bd76040830188612b56565b612be46060830187612b56565b612bf16080830186612b71565b612bfe60a0830185612b71565b612c0b60c0830184612b92565b98975050505050505050565b612c2081612b80565b8114612c2b57600080fd5b50565b600081359050612c3d81612c17565b92915050565b600060208284031215612c5957612c586128f3565b5b6000612c6784828501612c2e565b91505092915050565b600081519050919050565b600082825260208201905092915050565b6000819050602082019050919050565b600082825260208201905092915050565b6000612cb882612a8c565b612cc28185612c9c565b9350612cd2818560208601612aa8565b612cdb81612907565b840191505092915050565b6000612cf28383612cad565b905092915050565b6000602082019050919050565b6000612d1282612c70565b612d1c8185612c7b565b935083602082028501612d2e85612c8c565b8060005b85811015612d6a5784840389528151612d4b8582612ce6565b9450612d5683612cfa565b925060208a01995050600181019050612d32565b50829750879550505050505092915050565b600081519050919050565b600082825260208201905092915050565b6000819050602082019050919050565b612db181612b80565b82525050565b6000612dc38383612da8565b60208301905092915050565b6000602082019050919050565b6000612de782612d7c565b612df18185612d87565b9350612dfc83612d98565b8060005b83811015612e2d578151612e148882612db7565b9750612e1f83612dcf565b925050600181019050612e00565b5085935050505092915050565b600081519050919050565b600082825260208201905092915050565b6000819050602082019050919050565b612e6f81612b4c565b82525050565b6000612e818383612e66565b60208301905092915050565b6000602082019050919050565b6000612ea582612e3a565b612eaf8185612e45565b9350612eba83612e56565b8060005b83811015612eeb578151612ed28882612e75565b9750612edd83612e8d565b925050600181019050612ebe565b5085935050505092915050565b600081519050919050565b600082825260208201905092915050565b6000819050602082019050919050565b612f2d81612b65565b82525050565b6000612f3f8383612f24565b60208301905092915050565b6000602082019050919050565b6000612f6382612ef8565b612f6d8185612f03565b9350612f7883612f14565b8060005b83811015612fa9578151612f908882612f33565b9750612f9b83612f4b565b925050600181019050612f7c565b5085935050505092915050565b600060a0820190508181036000830152612fd08188612d07565b90508181036020830152612fe48187612ddc565b90508181036040830152612ff88186612e9a565b9050818103606083015261300c8185612e9a565b905081810360808301526130208184612f58565b90509695505050505050565b61303581612b4c565b811461304057600080fd5b50565b6000813590506130528161302c565b92915050565b6000806040838503121561306f5761306e6128f3565b5b600083013567ffffffffffffffff81111561308d5761308c6128f8565b5b61309985828601612a15565b92505060206130aa85828601613043565b9150509250929050565b60006020820190506130c96000830184612b56565b92915050565b600060a0820190506130e46000830188612b3d565b81810360208301526130f68187612ad2565b90506131056040830186612b71565b6131126060830185612b56565b61311f6080830184612b56565b9695505050505050565b60006020828403121561313f5761313e6128f3565b5b600061314d84828501613043565b91505092915050565b600060208201905061316b6000830184612b92565b92915050565b60008060408385031215613188576131876128f3565b5b600061319685828601613043565b92505060206131a785828601613043565b9150509250929050565b600060808201905081810360008301526131cb8187612ddc565b905081810360208301526131df8186612d07565b905081810360408301526131f38185612e9a565b905081810360608301526132078184612e9a565b905095945050505050565b6000606082019050818103600083015261322c8186612ad2565b905061323b6020830185612b56565b6132486040830184612b56565b949350505050565b60006080820190506132656000830187612b71565b6132726020830186612b71565b61327f6040830185612b56565b61328c6060830184612b92565b95945050505050565b600060a08201905081810360008301526132af8188612d07565b905081810360208301526132c38187612ddc565b905081810360408301526132d78186612d07565b905081810360608301526132eb8185612e9a565b905081810360808301526132ff8184612e9a565b90509695505050505050565b7f4e487b7100000000000000000000000000000000000000000000000000000000600052602260045260246000fd5b6000600282049050600182168061335257607f821691505b6020821081036133655761336461330b565b5b50919050565b600081905092915050565b600061338182612a8c565b61338b818561336b565b935061339b818560208601612aa8565b80840191505092915050565b60006133b38284613376565b915081905092915050565b7f5061796d656e7420616c726561647920636f6d706c6574656400000000000000600082015250565b60006133f4601983612a97565b91506133ff826133be565b602082019050919050565b60006020820190508181036000830152613423816133e7565b9050919050565b7f5061796d656e7420616c7265616479206d61726b65642061732065787069726560008201527f6400000000000000000000000000000000000000000000000000000000000000602082015250565b6000613486602183612a97565b91506134918261342a565b604082019050919050565b600060208201905081810360008301526134b581613479565b9050919050565b7f5061796d656e742077696e646f77207374696c6c206163746976650000000000600082015250565b60006134f2601b83612a97565b91506134fd826134bc565b602082019050919050565b60006020820190508181036000830152613521816134e5565b9050919050565b600060208201905081810360008301526135428184612ad2565b905092915050565b7f4e487b7100000000000000000000000000000000000000000000000000000000600052603260045260246000fd5b7f4e487b7100000000000000000000000000000000000000000000000000000000600052601160045260246000fd5b60006135b382612b4c565b91506135be83612b4c565b92508282039050818111156135d6576135d5613579565b5b92915050565b7f53656c6c6572206e6f7420726567697374657265640000000000000000000000600082015250565b6000613612601583612a97565b915061361d826135dc565b602082019050919050565b6000602082019050818103600083015261364181613605565b9050919050565b7f416d6f756e74206d7573742062652067726561746572207468616e2030000000600082015250565b600061367e601d83612a97565b915061368982613648565b602082019050919050565b600060208201905081810360008301526136ad81613671565b9050919050565b7f5061796d656e7420494420616c72656164792065786973747300000000000000600082015250565b60006136ea601983612a97565b91506136f5826136b4565b602082019050919050565b60006020820190508181036000830152613719816136dd565b9050919050565b600061372b82612b4c565b915061373683612b4c565b925082820190508082111561374e5761374d613579565b5b92915050565b60008190508160005260206000209050919050565b60006020601f8301049050919050565b600082821b905092915050565b6000600883026137b67fffffffffffffffffffffffffffffffffffffffffffffffffffffffffffffffff82613779565b6137c08683613779565b95508019841693508086168417925050509392505050565b6000819050919050565b60006137fd6137f86137f384612b4c565b6137d8565b612b4c565b9050919050565b6000819050919050565b613817836137e2565b61382b61382382613804565b848454613786565b825550505050565b600090565b613840613833565b61384b81848461380e565b505050565b5b8181101561386f57613864600082613838565b600181019050613851565b5050565b601f8211156138b45761388581613754565b61388e84613769565b8101602085101561389d578190505b6138b16138a985613769565b830182613850565b50505b505050565b600082821c905092915050565b60006138d7600019846008026138b9565b1980831691505092915050565b60006138f083836138c6565b9150826002028217905092915050565b61390982612a8c565b67ffffffffffffffff81111561392257613921612918565b5b61392c825461333a565b613937828285613873565b600060209050601f83116001811461396a5760008415613958578287015190505b61396285826138e4565b8655506139ca565b601f19841661397886613754565b60005b828110156139a05784890151825560018201915060208501945060208101905061397b565b868310156139bd57848901516139b9601f8916826138c6565b8355505b6001600288020188555050505b505050505050565b7f53656c6c657220616c7265616479207265676973746572656400000000000000600082015250565b6000613a08601983612a97565b9150613a13826139d2565b602082019050919050565b60006020820190508181036000830152613a37816139fb565b9050919050565b7f427573696e657373206e616d652063616e6e6f7420626520656d707479000000600082015250565b6000613a74601d83612a97565b9150613a7f82613a3e565b602082019050919050565b60006020820190508181036000830152613aa381613a67565b9050919050565b6000613ab582612b4c565b91507fffffffffffffffffffffffffffffffffffffffffffffffffffffffffffffffff8203613ae757613ae6613579565b5b600182019050919050565b7f4f6e6c79206f776e65722063616e20706572666f726d2074686973206163746960008201527f6f6e000000000000000000000000000000000000000000000000000000000000602082015250565b6000613b4e602283612a97565b9150613b5982613af2565b604082019050919050565b60006020820190508181036000830152613b7d81613b41565b9050919050565b7f4f6666736574206f7574206f6620626f756e6473000000000000000000000000600082015250565b6000613bba601483612a97565b9150613bc582613b84565b602082019050919050565b60006020820190508181036000830152613be981613bad565b9050919050565b7f5061796d656e7420726571756573742065787069726564000000000000000000600082015250565b6000613c26601783612a97565b9150613c3182613bf0565b602082019050919050565b60006020820190508181036000830152613c5581613c19565b9050919050565b7f5061796d656e742077696e646f77206578706972656400000000000000000000600082015250565b6000613c92601683612a97565b9150613c9d82613c5c565b602082019050919050565b60006020820190508181036000830152613cc181613c85565b9050919050565b7f496e636f7272656374207061796d656e7420616d6f756e740000000000000000600082015250565b6000613cfe601883612a97565b9150613d0982613cc8565b602082019050919050565b60006020820190508181036000830152613d2d81613cf1565b9050919050565b600081549050613d438161333a565b9050919050565b818103613d58575050613e30565b613d6182613d34565b67ffffffffffffffff811115613d7a57613d79612918565b5b613d84825461333a565b613d8f828285613873565b6000601f831160018114613dbe5760008415613dac578287015490505b613db685826138e4565b865550613e29565b601f198416613dcc87613754565b9650613dd786613754565b60005b82811015613dff57848901548255600182019150600185019450602081019050613dda565b86831015613e1c5784890154613e18601f8916826138c6565b8355505b6001600288020188555050505b5050505050505b565b600081905092915050565b50565b6000613e4d600083613e32565b9150613e5882613e3d565b600082019050919050565b6000613e6e82613e40565b9150819050919050565b7f4661696c656420746f2073656e64207061796d656e7420746f2073656c6c6572600082015250565b6000613eae602083612a97565b9150613eb982613e78565b602082019050919050565b60006020820190508181036000830152613edd81613ea1565b9050919050565b60006040820190508181036000830152613efe8185612ad2565b9050613f0d6020830184612b56565b939250505056fea2646970667358221220d30344fd37f0cae7773bc437a06e0b62584d213a841344d77467f495bdf8c3d864736f6c634300081b0033",
  "linkReferences": {},
  "deployedLinkReferences": {}
}