{
  "_format": "hh-sol-artifact-1",
  "contractName": "PaymentPlatform",
  "sourceName": "contracts/PaymentPlatform.sol",
  "abi": [
    {
      "inputs": [],
      "stateMutability": "nonpayable",
      "type": "constructor"
    },
    {
      "anonymous": false,
      "inputs": [
        {
          "indexed": false,
          "internalType": "string",
          "name": "paymentId",
          "type": "string"
        },
        {
          "indexed": true,
          "internalType": "address",
          "name": "buyer",
          "type": "address"
        },
        {
          "indexed": true,
          "internalType": "address",
          "name": "seller",
          "type": "address"
        },
        {
          "indexed": false,
          "internalType": "uint256",
          "name": "amount",
          "type": "uint256"
        }
      ],
      "name": "PaymentCompleted",
      "type": "event"
    },
    {
      "anonymous": false,
      "inputs": [
        {
          "indexed": false,
          "internalType": "string",
          "name": "paymentId",
          "type": "string"
        }
      ],
      "name": "PaymentExpired",
      "type": "event"
    },
    {
      "anonymous": false,
      "inputs": [
        {
          "indexed": false,
          "internalType": "string",
          "name": "paymentId",
          "type": "string"
        },
        {
          "indexed": true,
          "internalType": "address",
          "name": "seller",
          "type": "address"
        },
        {
          "indexed": false,
          "internalType": "uint256",
          "name": "amount",
          "type": "uint256"
        },
        {
          "indexed": false,
          "internalType": "uint256",
          "name": "expiryTime",
          "type": "uint256"
        }
      ],
      "name": "PaymentRequestCreated",
      "type": "event"
    },
    {
      "anonymous": false,
      "inputs": [
        {
          "indexed": true,
          "internalType": "address",
          "name": "sellerAddress",
          "type": "address"
        },
        {
          "indexed": false,
          "internalType": "string",
          "name": "businessName",
          "type": "string"
        }
      ],
      "name": "SellerRegistered",
      "type": "event"
    },
    {
      "inputs": [],
      "name": "PAYMENT_WINDOW",
      "outputs": [
        {
          "internalType": "uint256",
          "name": "",
          "type": "uint256"
        }
      ],
      "stateMutability": "view",
      "type": "function"
    },
    {
      "inputs": [
        {
          "internalType": "string",
          "name": "paymentId",
          "type": "string"
        }
      ],
      "name": "checkPaymentStatus",
      "outputs": [
        {
          "internalType": "bool",
          "name": "isPaid",
          "type": "bool"
        },
        {
          "internalType": "bool",
          "name": "isExpired",
          "type": "bool"
        },
        {
          "internalType": "uint256",
          "name": "remainingTime",
          "type": "uint256"
        },
        {
          "internalType": "address",
          "name": "buyer",
          "type": "address"
        }
      ],
      "stateMutability": "view",
      "type": "function"
    },
    {
      "inputs": [
        {
          "internalType": "string",
          "name": "paymentId",
          "type": "string"
        },
        {
          "internalType": "uint256",
          "name": "amount",
          "type": "uint256"
        }
      ],
      "name": "createPaymentRequest",
      "outputs": [],
      "stateMutability": "nonpayable",
      "type": "function"
    },
    {
      "inputs": [
        {
          "internalType": "uint256",
          "name": "offset",
          "type": "uint256"
        },
        {
          "internalType": "uint256",
          "name": "limit",
          "type": "uint256"
        }
      ],
      "name": "getAllSellers",
      "outputs": [
        {
          "internalType": "address[]",
          "name": "addresses",
          "type": "address[]"
        },
        {
          "internalType": "string[]",
          "name": "businessNames",
          "type": "string[]"
        },
        {
          "internalType": "uint256[]",
          "name": "transactions",
          "type": "uint256[]"
        },
        {
          "internalType": "uint256[]",
          "name": "amounts",
          "type": "uint256[]"
        }
      ],
      "stateMutability": "view",
      "type": "function"
    },
    {
      "inputs": [
        {
          "internalType": "address",
          "name": "client",
          "type": "address"
        }
      ],
      "name": "getClientPaymentCount",
      "outputs": [
        {
          "internalType": "uint256",
          "name": "",
          "type": "uint256"
        }
      ],
      "stateMutability": "view",
      "type": "function"
    },
    {
      "inputs": [
        {
          "internalType": "address",
          "name": "client",
          "type": "address"
        }
      ],
      "name": "getClientPaymentHistory",
      "outputs": [
        {
          "internalType": "string[]",
          "name": "paymentIds",
          "type": "string[]"
        },
        {
          "internalType": "address[]",
          "name": "sellers",
          "type": "address[]"
        },
        {
          "internalType": "string[]",
          "name": "businessNames",
          "type": "string[]"
        },
        {
          "internalType": "uint256[]",
          "name": "amounts",
          "type": "uint256[]"
        },
        {
          "internalType": "uint256[]",
          "name": "timestamps",
          "type": "uint256[]"
        }
      ],
      "stateMutability": "view",
      "type": "function"
    },
    {
      "inputs": [
        {
          "internalType": "address",
          "name": "sellerAddress",
          "type": "address"
        }
      ],
      "name": "getSellerStats",
      "outputs": [
        {
          "internalType": "string",
          "name": "businessName",
          "type": "string"
        },
        {
          "internalType": "uint256",
          "name": "totalTransactions",
          "type": "uint256"
        },
        {
          "internalType": "uint256",
          "name": "totalAmount",
          "type": "uint256"
        }
      ],
      "stateMutability": "view",
      "type": "function"
    },
    {
      "inputs": [
        {
          "internalType": "string",
          "name": "paymentId",
          "type": "string"
        }
      ],
      "name": "makePayment",
      "outputs": [],
      "stateMutability": "payable",
      "type": "function"
    },
    {
      "inputs": [
        {
          "internalType": "string",
          "name": "paymentId",
          "type": "string"
        }
      ],
      "name": "markPaymentExpired",
      "outputs": [],
      "stateMutability": "nonpayable",
      "type": "function"
    },
    {
      "inputs": [],
      "name": "owner",
      "outputs": [
        {
          "internalType": "address",
          "name": "",
          "type": "address"
        }
      ],
      "stateMutability": "view",
      "type": "function"
    },
    {
      "inputs": [
        {
          "internalType": "string",
          "name": "",
          "type": "string"
        }
      ],
      "name": "paymentRequests",
      "outputs": [
        {
          "internalType": "string",
          "name": "paymentId",
          "type": "string"
        },
        {
          "internalType": "address payable",
          "name": "seller",
          "type": "address"
        },
        {
          "internalType": "uint256",
          "name": "amount",
          "type": "uint256"
        },
        {
          "internalType": "uint256",
          "name": "expiryTime",
          "type": "uint256"
        },
        {
          "internalType": "bool",
          "name": "isPaid",
          "type": "bool"
        },
        {
          "internalType": "bool",
          "name": "isExpired",
          "type": "bool"
        },
        {
          "internalType": "address",
          "name": "buyer",
          "type": "address"
        }
      ],
      "stateMutability": "view",
      "type": "function"
    },
    {
      "inputs": [
        {
          "internalType": "string",
          "name": "businessName",
          "type": "string"
        }
      ],
      "name": "registerSeller",
      "outputs": [],
      "stateMutability": "nonpayable",
      "type": "function"
    },
    {
      "inputs": [
        {
          "internalType": "uint256",
          "name": "",
          "type": "uint256"
        }
      ],
      "name": "sellerAddresses",
      "outputs": [
        {
          "internalType": "address",
          "name": "",
          "type": "address"
        }
      ],
      "stateMutability": "view",
      "type": "function"
    },
    {
      "inputs": [
        {
          "internalType": "address",
          "name": "",
          "type": "address"
        }
      ],
      "name": "sellers",
      "outputs": [
        {
          "internalType": "address payable",
          "name": "walletAddress",
          "type": "address"
        },
        {
          "internalType": "string",
          "name": "businessName",
          "type": "string"
        },
        {
          "internalType": "bool",
          "name": "isRegistered",
          "type": "bool"
        },
        {
          "internalType": "uint256",
          "name": "totalTransactions",
          "type": "uint256"
        },
        {
          "internalType": "uint256",
          "name": "totalAmount",
          "type": "uint256"
        }
      ],
      "stateMutability": "view",
      "type": "function"
    },
    {
      "inputs": [],
      "name": "totalSellers",
      "outputs": [
        {
          "internalType": "uint256",
          "name": "",
          "type": "uint256"
        }
      ],
      "stateMutability": "view",
      "type": "function"
    }
  ],
  "bytecode": "0x6080604052348015600f57600080fd5b5033600360006101000a81548173ffffffffffffffffffffffffffffffffffffffff021916908373ffffffffffffffffffffffffffffffffffffffff16021790555060006005819055506135a8806100686000396000f3fe6080604052600436106100e85760003560e01c80638da5cb5b1161008a578063e09eb8c411610059578063e09eb8c414610329578063ec5d53c014610366578063f9e823e6146103a6578063ffe8704d146103c2576100e8565b80638da5cb5b146102545780639e18298a1461027f578063c6c48962146102bf578063ce36ab7f146102ea576100e8565b806363b48852116100c657806363b48852146101825780636d3f4b7a146101ab5780636d47ab72146101d65780636eb78e6514610217576100e8565b8063028f919d146100ed5780632a32732514610130578063316a29fc14610159575b600080fd5b3480156100f957600080fd5b50610114600480360381019061010f91906122d3565b610403565b6040516101279796959493929190612431565b60405180910390f35b34801561013c57600080fd5b50610157600480360381019061015291906122d3565b61053d565b005b34801561016557600080fd5b50610180600480360381019061017b91906124d3565b6106a1565b005b34801561018e57600080fd5b506101a960048036038101906101a491906122d3565b6109bd565b005b3480156101b757600080fd5b506101c0610c70565b6040516101cd919061252f565b60405180910390f35b3480156101e257600080fd5b506101fd60048036038101906101f89190612576565b610c76565b60405161020e9594939291906125a3565b60405180910390f35b34801561022357600080fd5b5061023e600480360381019061023991906125fd565b610d61565b60405161024b919061262a565b60405180910390f35b34801561026057600080fd5b50610269610da0565b604051610276919061262a565b60405180910390f35b34801561028b57600080fd5b506102a660048036038101906102a19190612645565b610dc6565b6040516102b6949392919061290d565b60405180910390f35b3480156102cb57600080fd5b506102d4611287565b6040516102e1919061252f565b60405180910390f35b3480156102f657600080fd5b50610311600480360381019061030c9190612576565b61128c565b6040516103209392919061296e565b60405180910390f35b34801561033557600080fd5b50610350600480360381019061034b9190612576565b611456565b60405161035d919061252f565b60405180910390f35b34801561037257600080fd5b5061038d600480360381019061038891906122d3565b6114a2565b60405161039d94939291906129ac565b60405180910390f35b6103c060048036038101906103bb91906122d3565b6116ae565b005b3480156103ce57600080fd5b506103e960048036038101906103e49190612576565b611c3d565b6040516103fa9594939291906129f1565b60405180910390f35b60018180516020810182018051848252602083016020850120818352809550505050505060009150905080600001805461043c90612a96565b80601f016020809104026020016040519081016040528092919081815260200182805461046890612a96565b80156104b55780601f1061048a576101008083540402835291602001916104b5565b820191906000526020600020905b81548152906001019060200180831161049857829003601f168201915b5050505050908060010160009054906101000a900473ffffffffffffffffffffffffffffffffffffffff16908060020154908060030154908060040160009054906101000a900460ff16908060040160019054906101000a900460ff16908060040160029054906101000a900473ffffffffffffffffffffffffffffffffffffffff16905087565b600060018260405161054f9190612b03565b908152602001604051809103902090508060040160009054906101000a900460ff16156105b1576040517f08c379a00000000000000000000000000000000000000000000000000000000081526004016105a890612b66565b60405180910390fd5b8060040160019054906101000a900460ff1615610603576040517f08c379a00000000000000000000000000000000000000000000000000000000081526004016105fa90612bf8565b60405180910390fd5b80600301544211610649576040517f08c379a000000000000000000000000000000000000000000000000000000000815260040161064090612c64565b60405180910390fd5b60018160040160016101000a81548160ff0219169083151502179055507fd4ffa26973067f1a65cfbf5b389db5616b7274527f2e8a5651a297a46ddf8474826040516106959190612c84565b60405180910390a15050565b6000803373ffffffffffffffffffffffffffffffffffffffff1673ffffffffffffffffffffffffffffffffffffffff16815260200190815260200160002060020160009054906101000a900460ff1661072f576040517f08c379a000000000000000000000000000000000000000000000000000000000815260040161072690612cf2565b60405180910390fd5b60008111610772576040517f08c379a000000000000000000000000000000000000000000000000000000000815260040161076990612d5e565b60405180910390fd5b60006001836040516107849190612b03565b908152602001604051809103902060020154146107d6576040517f08c379a00000000000000000000000000000000000000000000000000000000081526004016107cd90612dca565b60405180910390fd5b600060b4426107e59190612e19565b90506040518060e001604052808481526020013373ffffffffffffffffffffffffffffffffffffffff168152602001838152602001828152602001600015158152602001600015158152602001600073ffffffffffffffffffffffffffffffffffffffff1681525060018460405161085d9190612b03565b908152602001604051809103902060008201518160000190816108809190612ff9565b5060208201518160010160006101000a81548173ffffffffffffffffffffffffffffffffffffffff021916908373ffffffffffffffffffffffffffffffffffffffff160217905550604082015181600201556060820151816003015560808201518160040160006101000a81548160ff02191690831515021790555060a08201518160040160016101000a81548160ff02191690831515021790555060c08201518160040160026101000a81548173ffffffffffffffffffffffffffffffffffffffff021916908373ffffffffffffffffffffffffffffffffffffffff1602179055509050503373ffffffffffffffffffffffffffffffffffffffff167f3840251a2662bfc755f8055138b0ece56bbc33e5b234c35f9877b42c460bf4b28484846040516109b09392919061296e565b60405180910390a2505050565b6000803373ffffffffffffffffffffffffffffffffffffffff1673ffffffffffffffffffffffffffffffffffffffff16815260200190815260200160002060020160009054906101000a900460ff1615610a4c576040517f08c379a0000000000000000000000000000000000000000000000000000000008152600401610a4390613117565b60405180910390fd5b6000815111610a90576040517f08c379a0000000000000000000000000000000000000000000000000000000008152600401610a8790613183565b60405180910390fd5b6040518060a001604052803373ffffffffffffffffffffffffffffffffffffffff1681526020018281526020016001151581526020016000815260200160008152506000803373ffffffffffffffffffffffffffffffffffffffff1673ffffffffffffffffffffffffffffffffffffffff16815260200190815260200160002060008201518160000160006101000a81548173ffffffffffffffffffffffffffffffffffffffff021916908373ffffffffffffffffffffffffffffffffffffffff1602179055506020820151816001019081610b6c9190612ff9565b5060408201518160020160006101000a81548160ff02191690831515021790555060608201518160030155608082015181600401559050506004339080600181540180825580915050600190039060005260206000200160009091909190916101000a81548173ffffffffffffffffffffffffffffffffffffffff021916908373ffffffffffffffffffffffffffffffffffffffff16021790555060056000815480929190610c1a906131a3565b91905055503373ffffffffffffffffffffffffffffffffffffffff167fecef9454c60fab6a60b6f2aa319263c0f711cdb927c213e76687f7853b59784282604051610c659190612c84565b60405180910390a250565b60055481565b60006020528060005260406000206000915090508060000160009054906101000a900473ffffffffffffffffffffffffffffffffffffffff1690806001018054610cbf90612a96565b80601f0160208091040260200160405190810160405280929190818152602001828054610ceb90612a96565b8015610d385780601f10610d0d57610100808354040283529160200191610d38565b820191906000526020600020905b815481529060010190602001808311610d1b57829003601f168201915b5050505050908060020160009054906101000a900460ff16908060030154908060040154905085565b60048181548110610d7157600080fd5b906000526020600020016000915054906101000a900473ffffffffffffffffffffffffffffffffffffffff1681565b600360009054906101000a900473ffffffffffffffffffffffffffffffffffffffff1681565b606080606080600360009054906101000a900473ffffffffffffffffffffffffffffffffffffffff1673ffffffffffffffffffffffffffffffffffffffff163373ffffffffffffffffffffffffffffffffffffffff1614610e5c576040517f08c379a0000000000000000000000000000000000000000000000000000000008152600401610e539061325d565b60405180910390fd5b6005548610610ea0576040517f08c379a0000000000000000000000000000000000000000000000000000000008152600401610e97906132c9565b60405180910390fd5b600086600554610eb091906132e9565b90506000868210610ec15786610ec3565b815b90508067ffffffffffffffff811115610edf57610ede6121a8565b5b604051908082528060200260200182016040528015610f0d5781602001602082028036833780820191505090505b5095508067ffffffffffffffff811115610f2a57610f296121a8565b5b604051908082528060200260200182016040528015610f5d57816020015b6060815260200190600190039081610f485790505b5094508067ffffffffffffffff811115610f7a57610f796121a8565b5b604051908082528060200260200182016040528015610fa85781602001602082028036833780820191505090505b5093508067ffffffffffffffff811115610fc557610fc46121a8565b5b604051908082528060200260200182016040528015610ff35781602001602082028036833780820191505090505b50925060005b8181101561127b5760006004828b6110119190612e19565b815481106110225761102161331d565b5b9060005260206000200160009054906101000a900473ffffffffffffffffffffffffffffffffffffffff16905060008060008373ffffffffffffffffffffffffffffffffffffffff1673ffffffffffffffffffffffffffffffffffffffff1681526020019081526020016000206040518060a00160405290816000820160009054906101000a900473ffffffffffffffffffffffffffffffffffffffff1673ffffffffffffffffffffffffffffffffffffffff1673ffffffffffffffffffffffffffffffffffffffff16815260200160018201805461110090612a96565b80601f016020809104026020016040519081016040528092919081815260200182805461112c90612a96565b80156111795780601f1061114e57610100808354040283529160200191611179565b820191906000526020600020905b81548152906001019060200180831161115c57829003601f168201915b505050505081526020016002820160009054906101000a900460ff16151515158152602001600382015481526020016004820154815250509050818984815181106111c7576111c661331d565b5b602002602001019073ffffffffffffffffffffffffffffffffffffffff16908173ffffffffffffffffffffffffffffffffffffffff168152505080602001518884815181106112195761121861331d565b5b6020026020010181905250806060015187848151811061123c5761123b61331d565b5b60200260200101818152505080608001518684815181106112605761125f61331d565b5b60200260200101818152505050508080600101915050610ff9565b50505092959194509250565b60b481565b606060008060008060008673ffffffffffffffffffffffffffffffffffffffff1673ffffffffffffffffffffffffffffffffffffffff1681526020019081526020016000206040518060a00160405290816000820160009054906101000a900473ffffffffffffffffffffffffffffffffffffffff1673ffffffffffffffffffffffffffffffffffffffff1673ffffffffffffffffffffffffffffffffffffffff16815260200160018201805461134290612a96565b80601f016020809104026020016040519081016040528092919081815260200182805461136e90612a96565b80156113bb5780601f10611390576101008083540402835291602001916113bb565b820191906000526020600020905b81548152906001019060200180831161139e57829003601f168201915b505050505081526020016002820160009054906101000a900460ff161515151581526020016003820154815260200160048201548152505090508060400151611439576040517f08c379a000000000000000000000000000000000000000000000000000000000815260040161143090612cf2565b60405180910390fd5b806020015181606001518260800151935093509350509193909250565b6000600260008373ffffffffffffffffffffffffffffffffffffffff1673ffffffffffffffffffffffffffffffffffffffff168152602001908152602001600020805490509050919050565b60008060008060006001866040516114ba9190612b03565b90815260200160405180910390206040518060e00160405290816000820180546114e390612a96565b80601f016020809104026020016040519081016040528092919081815260200182805461150f90612a96565b801561155c5780601f106115315761010080835404028352916020019161155c565b820191906000526020600020905b81548152906001019060200180831161153f57829003601f168201915b505050505081526020016001820160009054906101000a900473ffffffffffffffffffffffffffffffffffffffff1673ffffffffffffffffffffffffffffffffffffffff1673ffffffffffffffffffffffffffffffffffffffff16815260200160028201548152602001600382015481526020016004820160009054906101000a900460ff161515151581526020016004820160019054906101000a900460ff161515151581526020016004820160029054906101000a900473ffffffffffffffffffffffffffffffffffffffff1673ffffffffffffffffffffffffffffffffffffffff1673ffffffffffffffffffffffffffffffffffffffff16815250509050806080015194508060a00151806116775750806060015142115b9350806060015142101561169a5742816060015161169591906132e9565b61169d565b60005b92508060c001519150509193509193565b60006001826040516116c09190612b03565b908152602001604051809103902090508060040160009054906101000a900460ff1615611722576040517f08c379a000000000000000000000000000000000000000000000000000000000815260040161171990612b66565b60405180910390fd5b8060040160019054906101000a900460ff1615611774576040517f08c379a000000000000000000000000000000000000000000000000000000000815260040161176b90613398565b60405180910390fd5b80600301544211156117bb576040517f08c379a00000000000000000000000000000000000000000000000000000000081526004016117b290613404565b60405180910390fd5b80600201543414611801576040517f08c379a00000000000000000000000000000000000000000000000000000000081526004016117f890613470565b60405180910390fd5b60018160040160006101000a81548160ff021916908315150217905550338160040160026101000a81548173ffffffffffffffffffffffffffffffffffffffff021916908373ffffffffffffffffffffffffffffffffffffffff16021790555060008060008360010160009054906101000a900473ffffffffffffffffffffffffffffffffffffffff1673ffffffffffffffffffffffffffffffffffffffff1673ffffffffffffffffffffffffffffffffffffffff168152602001908152602001600020905060018160030160008282546118dc9190612e19565b92505081905550348160040160008282546118f79190612e19565b92505081905550600260003373ffffffffffffffffffffffffffffffffffffffff1673ffffffffffffffffffffffffffffffffffffffff1681526020019081526020016000206040518060a001604052808581526020018460010160009054906101000a900473ffffffffffffffffffffffffffffffffffffffff1673ffffffffffffffffffffffffffffffffffffffff16815260200183600101805461199d90612a96565b80601f01602080910402602001604051908101604052809291908181526020018280546119c990612a96565b8015611a165780601f106119eb57610100808354040283529160200191611a16565b820191906000526020600020905b8154815290600101906020018083116119f957829003601f168201915b505050505081526020013481526020014281525090806001815401808255809150506001900390600052602060002090600502016000909190919091506000820151816000019081611a689190612ff9565b5060208201518160010160006101000a81548173ffffffffffffffffffffffffffffffffffffffff021916908373ffffffffffffffffffffffffffffffffffffffff1602179055506040820151816002019081611ac59190612ff9565b506060820151816003015560808201518160040155505060008260010160009054906101000a900473ffffffffffffffffffffffffffffffffffffffff1673ffffffffffffffffffffffffffffffffffffffff1634604051611b26906134c1565b60006040518083038185875af1925050503d8060008114611b63576040519150601f19603f3d011682016040523d82523d6000602084013e611b68565b606091505b5050905080611bac576040517f08c379a0000000000000000000000000000000000000000000000000000000008152600401611ba390613522565b60405180910390fd5b8260010160009054906101000a900473ffffffffffffffffffffffffffffffffffffffff1673ffffffffffffffffffffffffffffffffffffffff163373ffffffffffffffffffffffffffffffffffffffff167f34ddb4977c7a6a68d953dc3ba5fd644201e8a9393f14165b9337c4b21841818d8634604051611c2f929190613542565b60405180910390a350505050565b60608060608060606000600260008873ffffffffffffffffffffffffffffffffffffffff1673ffffffffffffffffffffffffffffffffffffffff168152602001908152602001600020805480602002602001604051908101604052809291908181526020016000905b82821015611e6657838290600052602060002090600502016040518060a0016040529081600082018054611cd990612a96565b80601f0160208091040260200160405190810160405280929190818152602001828054611d0590612a96565b8015611d525780601f10611d2757610100808354040283529160200191611d52565b820191906000526020600020905b815481529060010190602001808311611d3557829003601f168201915b505050505081526020016001820160009054906101000a900473ffffffffffffffffffffffffffffffffffffffff1673ffffffffffffffffffffffffffffffffffffffff1673ffffffffffffffffffffffffffffffffffffffff168152602001600282018054611dc190612a96565b80601f0160208091040260200160405190810160405280929190818152602001828054611ded90612a96565b8015611e3a5780601f10611e0f57610100808354040283529160200191611e3a565b820191906000526020600020905b815481529060010190602001808311611e1d57829003601f168201915b505050505081526020016003820154815260200160048201548152505081526020019060010190611ca6565b5050505090506000815190508067ffffffffffffffff811115611e8c57611e8b6121a8565b5b604051908082528060200260200182016040528015611ebf57816020015b6060815260200190600190039081611eaa5790505b5096508067ffffffffffffffff811115611edc57611edb6121a8565b5b604051908082528060200260200182016040528015611f0a5781602001602082028036833780820191505090505b5095508067ffffffffffffffff811115611f2757611f266121a8565b5b604051908082528060200260200182016040528015611f5a57816020015b6060815260200190600190039081611f455790505b5094508067ffffffffffffffff811115611f7757611f766121a8565b5b604051908082528060200260200182016040528015611fa55781602001602082028036833780820191505090505b5093508067ffffffffffffffff811115611fc257611fc16121a8565b5b604051908082528060200260200182016040528015611ff05781602001602082028036833780820191505090505b50925060005b8181101561216d578281815181106120115761201061331d565b5b6020026020010151600001518882815181106120305761202f61331d565b5b602002602001018190525082818151811061204e5761204d61331d565b5b60200260200101516020015187828151811061206d5761206c61331d565b5b602002602001019073ffffffffffffffffffffffffffffffffffffffff16908173ffffffffffffffffffffffffffffffffffffffff16815250508281815181106120ba576120b961331d565b5b6020026020010151604001518682815181106120d9576120d861331d565b5b60200260200101819052508281815181106120f7576120f661331d565b5b6020026020010151606001518582815181106121165761211561331d565b5b6020026020010181815250508281815181106121355761213461331d565b5b6020026020010151608001518482815181106121545761215361331d565b5b6020026020010181815250508080600101915050611ff6565b50505091939590929450565b6000604051905090565b600080fd5b600080fd5b600080fd5b600080fd5b6000601f19601f8301169050919050565b7f4e487b7100000000000000000000000000000000000000000000000000000000600052604160045260246000fd5b6121e082612197565b810181811067ffffffffffffffff821117156121ff576121fe6121a8565b5b80604052505050565b6000612212612179565b905061221e82826121d7565b919050565b600067ffffffffffffffff82111561223e5761223d6121a8565b5b61224782612197565b9050602081019050919050565b82818337600083830152505050565b600061227661227184612223565b612208565b90508281526020810184848401111561229257612291612192565b5b61229d848285612254565b509392505050565b600082601f8301126122ba576122b961218d565b5b81356122ca848260208601612263565b91505092915050565b6000602082840312156122e9576122e8612183565b5b600082013567ffffffffffffffff81111561230757612306612188565b5b612313848285016122a5565b91505092915050565b600081519050919050565b600082825260208201905092915050565b60005b8381101561235657808201518184015260208101905061233b565b60008484015250505050565b600061236d8261231c565b6123778185612327565b9350612387818560208601612338565b61239081612197565b840191505092915050565b600073ffffffffffffffffffffffffffffffffffffffff82169050919050565b60006123c68261239b565b9050919050565b6123d6816123bb565b82525050565b6000819050919050565b6123ef816123dc565b82525050565b60008115159050919050565b61240a816123f5565b82525050565b600061241b8261239b565b9050919050565b61242b81612410565b82525050565b600060e082019050818103600083015261244b818a612362565b905061245a60208301896123cd565b61246760408301886123e6565b61247460608301876123e6565b6124816080830186612401565b61248e60a0830185612401565b61249b60c0830184612422565b98975050505050505050565b6124b0816123dc565b81146124bb57600080fd5b50565b6000813590506124cd816124a7565b92915050565b600080604083850312156124ea576124e9612183565b5b600083013567ffffffffffffffff81111561250857612507612188565b5b612514858286016122a5565b9250506020612525858286016124be565b9150509250929050565b600060208201905061254460008301846123e6565b92915050565b61255381612410565b811461255e57600080fd5b50565b6000813590506125708161254a565b92915050565b60006020828403121561258c5761258b612183565b5b600061259a84828501612561565b91505092915050565b600060a0820190506125b860008301886123cd565b81810360208301526125ca8187612362565b90506125d96040830186612401565b6125e660608301856123e6565b6125f360808301846123e6565b9695505050505050565b60006020828403121561261357612612612183565b5b6000612621848285016124be565b91505092915050565b600060208201905061263f6000830184612422565b92915050565b6000806040838503121561265c5761265b612183565b5b600061266a858286016124be565b925050602061267b858286016124be565b9150509250929050565b600081519050919050565b600082825260208201905092915050565b6000819050602082019050919050565b6126ba81612410565b82525050565b60006126cc83836126b1565b60208301905092915050565b6000602082019050919050565b60006126f082612685565b6126fa8185612690565b9350612705836126a1565b8060005b8381101561273657815161271d88826126c0565b9750612728836126d8565b925050600181019050612709565b5085935050505092915050565b600081519050919050565b600082825260208201905092915050565b6000819050602082019050919050565b600082825260208201905092915050565b600061278b8261231c565b612795818561276f565b93506127a5818560208601612338565b6127ae81612197565b840191505092915050565b60006127c58383612780565b905092915050565b6000602082019050919050565b60006127e582612743565b6127ef818561274e565b9350836020820285016128018561275f565b8060005b8581101561283d578484038952815161281e85826127b9565b9450612829836127cd565b925060208a01995050600181019050612805565b50829750879550505050505092915050565b600081519050919050565b600082825260208201905092915050565b6000819050602082019050919050565b612884816123dc565b82525050565b6000612896838361287b565b60208301905092915050565b6000602082019050919050565b60006128ba8261284f565b6128c4818561285a565b93506128cf8361286b565b8060005b838110156129005781516128e7888261288a565b97506128f2836128a2565b9250506001810190506128d3565b5085935050505092915050565b6000608082019050818103600083015261292781876126e5565b9050818103602083015261293b81866127da565b9050818103604083015261294f81856128af565b9050818103606083015261296381846128af565b905095945050505050565b600060608201905081810360008301526129888186612362565b905061299760208301856123e6565b6129a460408301846123e6565b949350505050565b60006080820190506129c16000830187612401565b6129ce6020830186612401565b6129db60408301856123e6565b6129e86060830184612422565b95945050505050565b600060a0820190508181036000830152612a0b81886127da565b90508181036020830152612a1f81876126e5565b90508181036040830152612a3381866127da565b90508181036060830152612a4781856128af565b90508181036080830152612a5b81846128af565b90509695505050505050565b7f4e487b7100000000000000000000000000000000000000000000000000000000600052602260045260246000fd5b60006002820490506001821680612aae57607f821691505b602082108103612ac157612ac0612a67565b5b50919050565b600081905092915050565b6000612add8261231c565b612ae78185612ac7565b9350612af7818560208601612338565b80840191505092915050565b6000612b0f8284612ad2565b915081905092915050565b7f5061796d656e7420616c726561647920636f6d706c6574656400000000000000600082015250565b6000612b50601983612327565b9150612b5b82612b1a565b602082019050919050565b60006020820190508181036000830152612b7f81612b43565b9050919050565b7f5061796d656e7420616c7265616479206d61726b65642061732065787069726560008201527f6400000000000000000000000000000000000000000000000000000000000000602082015250565b6000612be2602183612327565b9150612bed82612b86565b604082019050919050565b60006020820190508181036000830152612c1181612bd5565b9050919050565b7f5061796d656e742077696e646f77207374696c6c206163746976650000000000600082015250565b6000612c4e601b83612327565b9150612c5982612c18565b602082019050919050565b60006020820190508181036000830152612c7d81612c41565b9050919050565b60006020820190508181036000830152612c9e8184612362565b905092915050565b7f53656c6c6572206e6f7420726567697374657265640000000000000000000000600082015250565b6000612cdc601583612327565b9150612ce782612ca6565b602082019050919050565b60006020820190508181036000830152612d0b81612ccf565b9050919050565b7f416d6f756e74206d7573742062652067726561746572207468616e2030000000600082015250565b6000612d48601d83612327565b9150612d5382612d12565b602082019050919050565b60006020820190508181036000830152612d7781612d3b565b9050919050565b7f5061796d656e7420494420616c72656164792065786973747300000000000000600082015250565b6000612db4601983612327565b9150612dbf82612d7e565b602082019050919050565b60006020820190508181036000830152612de381612da7565b9050919050565b7f4e487b7100000000000000000000000000000000000000000000000000000000600052601160045260246000fd5b6000612e24826123dc565b9150612e2f836123dc565b9250828201905080821115612e4757612e46612dea565b5b92915050565b60008190508160005260206000209050919050565b60006020601f8301049050919050565b600082821b905092915050565b600060088302612eaf7fffffffffffffffffffffffffffffffffffffffffffffffffffffffffffffffff82612e72565b612eb98683612e72565b95508019841693508086168417925050509392505050565b6000819050919050565b6000612ef6612ef1612eec846123dc565b612ed1565b6123dc565b9050919050565b6000819050919050565b612f1083612edb565b612f24612f1c82612efd565b848454612e7f565b825550505050565b600090565b612f39612f2c565b612f44818484612f07565b505050565b5b81811015612f6857612f5d600082612f31565b600181019050612f4a565b5050565b601f821115612fad57612f7e81612e4d565b612f8784612e62565b81016020851015612f96578190505b612faa612fa285612e62565b830182612f49565b50505b505050565b600082821c905092915050565b6000612fd060001984600802612fb2565b1980831691505092915050565b6000612fe98383612fbf565b9150826002028217905092915050565b6130028261231c565b67ffffffffffffffff81111561301b5761301a6121a8565b5b6130258254612a96565b613030828285612f6c565b600060209050601f8311600181146130635760008415613051578287015190505b61305b8582612fdd565b8655506130c3565b601f19841661307186612e4d565b60005b8281101561309957848901518255600182019150602085019450602081019050613074565b868310156130b657848901516130b2601f891682612fbf565b8355505b6001600288020188555050505b505050505050565b7f53656c6c657220616c7265616479207265676973746572656400000000000000600082015250565b6000613101601983612327565b915061310c826130cb565b602082019050919050565b60006020820190508181036000830152613130816130f4565b9050919050565b7f427573696e657373206e616d652063616e6e6f7420626520656d707479000000600082015250565b600061316d601d83612327565b915061317882613137565b602082019050919050565b6000602082019050818103600083015261319c81613160565b9050919050565b60006131ae826123dc565b91507fffffffffffffffffffffffffffffffffffffffffffffffffffffffffffffffff82036131e0576131df612dea565b5b600182019050919050565b7f4f6e6c79206f776e65722063616e20706572666f726d2074686973206163746960008201527f6f6e000000000000000000000000000000000000000000000000000000000000602082015250565b6000613247602283612327565b9150613252826131eb565b604082019050919050565b600060208201905081810360008301526132768161323a565b9050919050565b7f4f6666736574206f7574206f6620626f756e6473000000000000000000000000600082015250565b60006132b3601483612327565b91506132be8261327d565b602082019050919050565b600060208201905081810360008301526132e2816132a6565b9050919050565b60006132f4826123dc565b91506132ff836123dc565b925082820390508181111561331757613316612dea565b5b92915050565b7f4e487b7100000000000000000000000000000000000000000000000000000000600052603260045260246000fd5b7f5061796d656e7420726571756573742065787069726564000000000000000000600082015250565b6000613382601783612327565b915061338d8261334c565b602082019050919050565b600060208201905081810360008301526133b181613375565b9050919050565b7f5061796d656e742077696e646f77206578706972656400000000000000000000600082015250565b60006133ee601683612327565b91506133f9826133b8565b602082019050919050565b6000602082019050818103600083015261341d816133e1565b9050919050565b7f496e636f7272656374207061796d656e7420616d6f756e740000000000000000600082015250565b600061345a601883612327565b915061346582613424565b602082019050919050565b600060208201905081810360008301526134898161344d565b9050919050565b600081905092915050565b50565b60006134ab600083613490565b91506134b68261349b565b600082019050919050565b60006134cc8261349e565b9150819050919050565b7f4661696c656420746f2073656e64207061796d656e7420746f2073656c6c6572600082015250565b600061350c602083612327565b9150613517826134d6565b602082019050919050565b6000602082019050818103600083015261353b816134ff565b9050919050565b6000604082019050818103600083015261355c8185612362565b905061356b60208301846123e6565b939250505056fea26469706673582212207affbfc0f21d83d43ac0314484d24a50030d1b50d96de40a0fd458015cb00e8164736f6c634300081b0033",
  "linkReferences": {},
  "deployedLinkReferences": {}
}